:1000000019C100003DC100003BC1000039C1000022
:1000100037C1000035C1000033C1000031C100000C
:100020002FC100002DC100002BC1000029C100001C
:1000300027C1000025C100000C940D1B21C1000048
:100040001FC100001DC100001BC1000019C100003C
:100050000C943E2415C100000C94812611C10000AF
:100060000FC100000DC100000BC1000009C100005C
:100070000C949E2A05C1000003C1000001C10000CC
:10008000FFC00000FDC00000FBC00000F9C0000080
:10009000F7C00000F5C00000F3C00000F1C0000090
:1000A000EFC00000EDC00000EBC000000C94CF19C1
:1000B000E7C00000E5C00000E3C000000C94AB1AEC
:1000C000DFC000000C94DA1ADBC00000D9C00000C9
:1000D000D7C00000D5C00000D3C00000D1C00000D0
:1000E000CFC00000CDC00000CBC00000C9C00000E0
:1000F000C7C00000C5C00000C3C00000C1C00000F0
:100100000C948719BDC00000BBC00000B9C000003E
:10011000B7C00000B5C00000B3C00000B1C000000F
:10012000AFC00000ADC00000ABC00000A9C000001F
:10013000A7C000000C94ED1AA3C00000A1C00000ED
:100140009FC000009DC000009BC0000099C000003F
:1001500097C0000095C0000093C0000091C000004F
:100160008FC000008DC000008BC0000089C000005F
:1001700087C0000085C0000083C0000081C000006F
:100180007FC000007DC000000C94F52879C00000FD
:1001900077C0000075C0000073C0000071C000008F
:1001A0000C941C1A6DC000006BC0000069C00000F8
:1001B0000C94691A65C000000C94981A61C0000084
:1001C0005FC000005DC000005BC0000059C00000BF
:1001D00057C0000055C0000053C000000C94CD294A
:1001E0000C9499284DC000004BC0000049C000008D
:1001F00047C0000045C0000043C00000F617EE17DE
:10020000E517DC17D317CA17FF17471943193F190A
:100210003B19371933194B1983197F197B19771932
:1002200073196F196B1963195F195B1957195319F2
:100230004F19671911241FBECFEFCDBFDFE3DEBF1B
:1002400000E00CBF18BE19BE1ABE1BBE13E2A0E030
:10025000B0E2E2E9F7E500E00BBF02C007900D92C3
:10026000AA38B107D9F71BBE2EE3AAE8B3E201C052
:100270001D92AD3CB207E1F70E942D1B0C94C72BD9
:10028000BFCE8F92AF92BF92CF92DF92EF920F9339
:1002900087E393E29F938F938BE5882E94E8A92EB2
:1002A000B12C26E2C22E24E2D22EE12C07E022E07D
:1002B00042E061E080EC94E00E94D6220F900F9023
:1002C0000F91EF90DF90CF90BF90AF908F900895F7
:1002D0008F929F92AF92BF92CF92DF92EF92FF9256
:1002E0001F93CF93DF9300D0CDB7DEB719821A8268
:1002F0001B8280E09BE00E94CF1F80EAE82E86E010
:10030000F82E11E0F701168380E09AE00E94CF1FDB
:1003100090E8C92E96E0D92EF601168380E099E088
:100320000E94CF1F20E6A22E26E0B22EF5011683F2
:1003300080E098E00E94CF1F10934606E0E2F6E0CE
:1003400010E4158380E2858332EA832E912C81E8C4
:10035000F4018083BE016F5F7F4FCB010E943F1B82
:1003600087E8F4018083F5011683F6011683F7010F
:10037000168310E8F501168361E08091A4240E94A1
:10038000B917F601168361E08091A5240E94B91780
:10039000F701168361E08091A6240E94B917239685
:1003A000CDBFDEBFDF91CF911F91FF90EF90DF9027
:1003B000CF90BF90AF909F908F9008950E94531858
:1003C0000E94361BE0E0F3E093E8908785E88187A0
:1003D000E0E2F3E09087818780E4818312828DE000
:1003E000808380E190E00C94BA20E6E2F4E212828D
:1003F0001382148215821682178210861186128645
:100400001386148615861686128A138A88E390E06E
:10041000848B958B84EF91E0868B978B808F918F67
:10042000828F938F2FE030E0248F358F268F378F88
:1004300020A331A382A393A384A395A386A397A308
:1004400080A791A78AEF90E082A793A784A795A79A
:1004500086A797A780AB91AB88EE93E082AB93AB76
:1004600080ED97E084AB95AB88EB9BE086AB97ABD8
:1004700080EA9FE080AF91AF82E382AF83AF84AF29
:1004800085AF16AE17AE8FEF809366241092672467
:10049000109268241092692410926A2480936B242D
:1004A00080936C2410926D2410926E2410926F240D
:1004B00010927024809371248AE080937224809338
:1004C00073248EE180937424809375248FE180934C
:1004D0007624109277241092782410927924109226
:1004E0007A2410927B248EE190E08093862490936E
:1004F00087248093892490938A2420E23EE42093E9
:100500008F24309390248CED95E0809391249093E8
:100510009224209393243093942480939524909351
:10052000962481E08093A92408950F931F93CF937D
:10053000DF9300D0CDB7DEB7E7E1F4E2108211829D
:1005400012821382148215821682178210861186F7
:100550001286138614861586168606E214E2F801C2
:100560008085918589839A83CE0101960E946D10C2
:10057000809172248B83CE01039694D5809173244D
:100580008B83CE010396C4D5F80182A993A98983F0
:100590009A83CE010196EAD6F80184A995A98983A8
:1005A0009A83CE01019640D7F80186A997A989833D
:1005B0009A83CE01019696D7F80180AD91AD8983DB
:1005C0009A83CE010196ECD7F80186AD8B83CE01DC
:1005D00003960E942E0B80917B248B83CE01039681
:1005E0000E94B60C80919E248B83CE0103960E94BC
:1005F0001F0E80919F248B83CE0103960E943E0E96
:100600008091A0248B83CE0103960E947C0E809162
:10061000A4248B83CE0103960E945D0E8091A524B5
:100620008B83CE0103960E94000E8091A6248B83BB
:10063000CE0103960E949B0E82E08093A92423960C
:10064000CDBFDEBFDF91CF911F910F910895089527
:10065000089508950895089580918D2391E0980F4D
:1006600090938D2380FF089580E090E00E94D52034
:1006700097FD19C0809336249093372480917B2472
:1006800082FF09C080916009909161099058809320
:100690003824909339248091762482FFE4CF61E05E
:1006A0008CE20C9445251092362410923724E6CF24
:1006B000089510928D230895CF93DF93C0919123D5
:1006C000D09190238091F9239091FA23009741F0E3
:1006D00001978093F9239093FA23892B09F40FC192
:1006E0008091FB239091FC23009741F00197809328
:1006F000FB239093FC23892B09F4FDC08091FD23FB
:100700009091FE23009741F001978093FD239093F1
:10071000FE23892B09F4EBC08091FF2390910024E4
:10072000009741F001978093FF2390930024892B39
:1007300009F4F1C08091012490910224009741F0C6
:1007400001978093012490930224892B09F4ECC033
:100750008091032490910424009741F001978093A5
:10076000032490930424892B09F4E7C08091052485
:1007700090910624009741F001978093052490936F
:100780000624892B09F4AFC0809107249091082496
:10079000009741F001978093072490930824892BB8
:1007A00009F49DC08091092490910A24009741F09A
:1007B00001978093092490930A24892B09F48BC014
:1007C0008091912320910B2430910C242115310527
:1007D00049F02150310920930B2430930C24232B12
:1007E00009F471C060919023C81709F471C00E9488
:1007F000AF1580910D2490910E24009741F0019740
:1008000080930D2490930E24892B09F44DC0809180
:100810000F2490911024009739F0019780930F24B2
:1008200090931024892B91F180911124909112249E
:10083000009739F001978093112490931224892B0B
:10084000B9F08091132490911424009771F00197CE
:100850008093132490931424892B39F481E080939E
:10086000460680911A2481114EC0DF91CF910895E0
:1008700081E08093660680911924882311F31092F9
:10088000192480E099E00E94CF1FDBCF81E08093A4
:10089000860680911824882339F21092182480E06B
:1008A0009AE00E94CF1FC0CF81E08093A60680917E
:1008B0001724882309F4ABCF1092172480E09BE023
:1008C0000E94CF1FA4CF1092902360E0C8138FCF57
:1008D000D6138DCF8ECF1092912380E073CF80E21C
:1008E000809325065FCF80E4809325064DCF80E47A
:1008F0008093A60611CF80E480938606FFCE80E425
:1009000080936606EDCE10921A2480E098E0DF9185
:10091000CF910C94CF1F80E88093660661E08091B0
:10092000A4240E94B91706CF80E88093860661E070
:100930008091A5240E94B9170BCF80E88093A6066A
:1009400061E08091A6240E94B91710CF80918C237A
:10095000882329F0815080938C238823F1F08091A3
:100960008B23882329F0815080938B23882379F06F
:1009700080918A23882351F0815080938A238111AA
:1009800005C08091A90681608093A9060895809191
:100990008906816080938906EBCF8091690681602A
:1009A00080936906DCCF0895089508950895089509
:1009B000089590EE980F9B3540F490E08097FC01ED
:1009C000E852FD4D2081261711F080E00895880F30
:1009D000991FFC01EA54FF4D0190F081E02D19951B
:1009E00081E0089590EE980F9B3548F4E82FF0E0F1
:1009F000B097DF01A852BD4D9C91961711F080E091
:100A00000895EE0FFF1FDF01AE5DBD4D8D919C91EE
:100A100082179307A1F7E050F04E0190F081E02D8E
:100A2000CA0119948091680682958170809326246A
:100A30009091880694FF0DC092E0892B8093262424
:100A40009091A80694FD0DC090E0892B80932624F8
:100A5000089590E0892B809326249091A80694FF16
:100A6000F3CF94E0892B809326240895FC018081A4
:100A70008093272481E008958091680686FB66278D
:100A800060F970E060932E2470932F248091880683
:100A900086FFB4C082E090E0862B972B80932E24B3
:100AA00090932F242091A80626FFC0C0E4E0F0E038
:100AB0008E2B9F2B80932E2490932F24E0916806F9
:100AC0000E2E000CFF0BBF016627770F661F7727DE
:100AD000660F771F660F771F660F771F862B972B82
:100AE00080932E2490932F2460918806062E000C6C
:100AF000770B9B012227330F221F33272295329534
:100B0000307F3227207F3227AC01422B532B40937A
:100B10002E2450932F242091A806022E000C330B74
:100B2000C9018827990F881F9927880F991F8295D7
:100B30009295907F9827807F9827842B952B809380
:100B40002E2490932F242091280626FF6CC020E0AD
:100B500030E0822B932B80932E2490932F2420918E
:100B6000280625FF5DC020E030E0822B932B2091EA
:100B70009123222309F451C020E031E0822B932BF2
:100B800020919023222309F445C020E032E0822BFB
:100B9000932B80932E2490932F242091A80620FF3E
:100BA00036C020E034E0822B932B80932E24909348
:100BB0002F242091880620FF27C020E038E0822BD8
:100BC000932B80932E2490932F242091680620FF4E
:100BD00018C020E030E1822B932B80932E24909339
:100BE0002F242091480620FD24C020E030E0822BF5
:100BF000932B80932E2490932F24089580E090E0EF
:100C00004BCF20E030E0E7CF20E030E0D8CF20E04D
:100C100030E0C9CF20E030E0BACF20E030E0AECF06
:100C200020E830E0A2CF20E430E093CFE0E0F0E035
:100C30003FCF20E030E2822B932B80932E249093A1
:100C40002F240895FC0180818093302481E0089551
:100C5000FC0180818093312481E00895FC01808132
:100C60008093322481E00895FC01808180933324B5
:100C700081E00895FC0180818093342481E008950F
:100C80008091680685FB992790F99093352480918F
:100C9000880685FF0DC082E0892B809335249091D2
:100CA000A80695FD0DC090E0892B8093352408950A
:100CB00080E0892B809335249091A80695FFF3CF8F
:100CC00094E0892B809335240895FC0180818093E2
:100CD000352481E00895FC0122813381209338245A
:100CE0003093392420912524222339F08281938165
:100CF0009058809360099093610981E00895FC0108
:100D00008081918180933A2490933B2481E00895DF
:100D1000FC0180819181009731F080933C24909375
:100D20003D2481E0089580E00895FC018081918157
:100D3000009731F080933E2490933F2481E0089502
:100D400080E00895FC0180819181009731F08093CB
:100D500040249093412481E0089580E00895FC01AF
:100D600080819181009731F08093422490934324B5
:100D700081E0089580E00895FC01808191810097D1
:100D800031F0809344249093452481E0089580E0DD
:100D90000895FC0180819181009731F08093462471
:100DA0009093472481E0089580E00895FC018081BC
:100DB0009181009731F0809348249093492481E0F9
:100DC000089580E00895FC0180819181009731F0C1
:100DD00080934A2490934B2481E0089580E0089505
:100DE000FC0180819181009731F080934C24909395
:100DF0004D2481E0089580E00895FC018081918177
:100E0000009731F080934E2490934F2481E0089511
:100E100080E00895FC0180819181009731F08093FA
:100E200050249093512481E0089580E00895FC01BE
:100E300080819181009731F08093522490935324C4
:100E400081E0089580E00895FC0180819181009700
:100E500031F0809354249093552481E0089580E0EC
:100E60000895FC0180819181009731F08093562490
:100E70009093572481E0089580E00895CF92DF9207
:100E8000EF92FF92CF93FC01C0818FEF8C0F8336DE
:100E900098F56C2F70E080E090E00E94B51D20E096
:100EA00030E048EC52E40E941F1D6B017C01609110
:100EB000B2247091B32480E090E00E94B31D9B01A6
:100EC000AC01C701B6010E94411E20E030E040E0C5
:100ED0005FE30E94BB1C0E94871D6093BA2470933D
:100EE000BB2481E08093AA24C0936024CF91FF901B
:100EF000EF90DF90CF90089580E0CF91FF90EF903A
:100F0000DF90CF900895CF92DF92EF92FF92CF9330
:100F1000FC01C0818FEF8C0F833698F56C2F70E049
:100F200080E090E00E94B51D20E030E048EC52E403
:100F30000E941F1D6B017C016091B4247091B52447
:100F400080E090E00E94B31D9B01AC01C701B60197
:100F50000E94411E20E030E040E05FE30E94BB1CA5
:100F60000E94871D6093BC247093BD2481E0809310
:100F7000AB24C0936124CF91FF90EF90DF90CF908E
:100F8000089580E0CF91FF90EF90DF90CF9008958B
:100F9000CF92DF92EF92FF92CF93FC01C0818FEF4F
:100FA0008C0F833698F56C2F70E080E090E00E9403
:100FB000B51D20E030E048EC52E40E941F1D6B019B
:100FC0007C016091B6247091B72480E090E00E948B
:100FD000B31D9B01AC01C701B6010E94411E20E078
:100FE00030E040E05FE30E94BB1C0E94871D6093DD
:100FF000BE247093BF2481E08093AC24C09362240C
:10100000CF91FF90EF90DF90CF90089580E0CF9147
:10101000FF90EF90DF90CF900895CF92DF92EF9204
:10102000FF92CF93FC01C0818FEF8C0F833698F530
:101030006C2F70E080E090E00E94B51D20E030E071
:1010400048EC52E40E941F1D6B017C016091B824A2
:101050007091B92480E090E00E94B31D9B01AC0127
:10106000C701B6010E94411E20E030E040E05FE38E
:101070000E94BB1C0E94871D6093C0247093C124F2
:1010800081E08093AD24C0936324CF91FF90EF90D3
:10109000DF90CF90089580E0CF91FF90EF90DF90A8
:1010A000CF900895CF93FC01C0818FEF8C0F8436D1
:1010B00028F5809174248C1708F16C2F70E080E083
:1010C00090E00E94B31D20E030E048EC52E40E9422
:1010D0001F1D20E030E040E855E40E94411E0E94C0
:1010E000871D6115F0E17F0760F460933A03709308
:1010F0003B03C093722481E0CF91089580E0CF91AB
:1011000008958FEF9FE080933A0390933B03F1CFD4
:10111000CF93FC01C0818FEF8C0F843628F580912E
:1011200075248C1708F16C2F70E080E090E00E942D
:10113000B31D20E030E048EC52E40E941F1D20E087
:1011400030E040E855E40E94411E0E94871D611571
:10115000F0E17F0760F46093380370933903C09324
:10116000732481E0CF91089580E0CF9108958FEFAF
:101170009FE08093380390933903F1CFFC01808185
:101180009EEF980F933620F48093742481E00895A5
:1011900080E00895FC0180819EEF980F933620F443
:1011A0008093752481E0089580E00895FC0180819A
:1011B0008093762481E00895FC01808180FF04C043
:1011C00090911B2491110DC081FF07C090911C24A8
:1011D000992319F091E090938E238093782481E0F5
:1011E000089591E090938F23EFCF10927B2480910C
:1011F0002524882319F084E080937B240895FC0142
:10120000808191819C01225031092735324030F490
:10121000809386249093872481E0089580E0089548
:1012200080E00895FC01808191819C012250310968
:101230002735324030F48093892490938A2481E0CA
:10124000089580E00895FC01808191819C012250E5
:1012500031092D3F3F4F98F420912124222349F05A
:101260009C0136952795215031092093260930930A
:10127000270980938F249093902481E0089580E043
:101280000895FC01808191819C0126503109253F00
:101290003F4F98F420912124222349F09C01369558
:1012A00027952150310920932809309329098093EB
:1012B00091249093922481E0089580E00895FC01A8
:1012C000808191819C01225031092D3F3F4F98F43C
:1012D00020912224222349F09C0136952795215004
:1012E0003109209326083093270880939324909304
:1012F000942481E0089580E00895FC01808191812B
:101300009C0126503109253F3F4F98F4209122241B
:10131000222349F09C0136952795215031092093CD
:10132000280830932908809395249093962481E08F
:10133000089580E00895FC01808182FF0AC09091A9
:101340002524992331F020E030E820936009309380
:10135000610980939B2481E0089581E008950895B8
:10136000FC0180818093A92481E00895CF92DF92CF
:10137000EF92FF920F931F93CF93DF93FC01C081F5
:10138000D181CE0101978031974250F080E0DF910A
:10139000CF911F910F91FF90EF90DF90CF90089524
:1013A000BE0180E090E00E94B31D9B01AC0182EB86
:1013B000E82E84E2F82E0EEA14E260E078E488EE8B
:1013C00091E00E94D41F6091602470E080E090E082
:1013D0000E94B51D20E030E048EC52E40E941F1D41
:1013E0006B017C016091B2247091B32480E090E0A5
:1013F0000E94B31D9B01AC01C701B6010E94411EB2
:1014000020E030E040E05FE30E94BB1C0E94871DAB
:101410006093BA247093BB2481E08093AA24C09384
:101420005824D0935924B3CFCF92DF92EF92FF92FA
:101430000F931F93CF93DF93FC01C081D181CE0125
:1014400001978031974250F080E0DF91CF911F915A
:101450000F91FF90EF90DF90CF900895BE0180E054
:1014600090E00E94B31D9B01AC0184EBE82E84E266
:10147000F82E0FEA14E260E078E488EE91E00E9432
:10148000D41F6091612470E080E090E00E94B51D5F
:1014900020E030E048EC52E40E941F1D6B017C010B
:1014A0006091B4247091B52480E090E00E94B31D57
:1014B0009B01AC01C701B6010E94411E20E030E053
:1014C00040E05FE30E94BB1C0E94871D6093BC2428
:1014D0007093BD2481E08093AB24C0935A24D093B1
:1014E0005B24B3CFCF92DF92EF92FF920F931F93C3
:1014F000CF93DF93FC01C081D181CE010197803170
:10150000974250F080E0DF91CF911F910F91FF90B3
:10151000EF90DF90CF900895BE0180E090E00E94B0
:10152000B31D9B01AC0186EBE82E84E2F82E00EBA4
:1015300014E260E078E488EE91E00E94D41F6091AC
:10154000622470E080E090E00E94B51D20E030E071
:1015500048EC52E40E941F1D6B017C016091B6248F
:101560007091B72480E090E00E94B31D9B01AC0114
:10157000C701B6010E94411E20E030E040E05FE379
:101580000E94BB1C0E94871D6093BE247093BF24E1
:1015900081E08093AC24C0935C24D0935D24B3CFCE
:1015A000CF92DF92EF92FF920F931F93CF93DF932F
:1015B000FC01C081D181CE0101978031974250F06A
:1015C00080E0DF91CF911F910F91FF90EF90DF901E
:1015D000CF900895BE0180E090E00E94B31D9B0172
:1015E000AC0188EBE82E84E2F82E01EB14E260E017
:1015F00078E488EE91E00E94D41F6091632470E04B
:1016000080E090E00E94B51D20E030E048EC52E41C
:101610000E941F1D6B017C016091B8247091B92458
:1016200080E090E00E94B31D9B01AC01C701B601B0
:101630000E94411E20E030E040E05FE30E94BB1CBE
:101640000E94871D6093C0247093C12481E0809321
:10165000AD24C0935E24D0935F24B3CFEF920F9359
:10166000CF93FC01C081C0FF05C08091172488235F
:1016700009F448C0C1FF05C080911824882309F4EB
:1016800068C0C2FF05C080911924882309F488C06E
:10169000C3FF04C080911A24882339F0C0936424C6
:1016A00081E0CF910F91EF9008952091C024309167
:1016B000C1244091B8245091B924E12C01E06091FB
:1016C000B12480E098E00E94BB1F1092AD2481E01D
:1016D00080931A248093450680913A2490913B246C
:1016E00095FFDCCF809156249091572401968093EA
:1016F000132490931424C093642481E0CF910F911C
:10170000EF9008952091BA243091BB244091B224E7
:101710005091B324E12C01E06091AE2480E09BE085
:101720000E94BB1F1092AA2481E08093172480930B
:10173000A50680913A2490913B2492FF9BCF809103
:10174000502490915124019680930D2490930E245F
:1017500091CF2091BC243091BD244091B42450916C
:10176000B524E12C01E06091AF2480E09AE00E9472
:10177000BB1F1092AB2481E08093182480938506D0
:1017800080913A2490913B2493FF7BCF8091522407
:1017900090915324019680930F249093102471CF3D
:1017A0002091BE243091BF244091B6245091B7249B
:1017B000E12C01E06091B02480E099E00E94BB1F21
:1017C0001092AC2481E08093192480936506809167
:1017D0003A2490913B2494FF5BCF809154249091C4
:1017E00055240196809311249093122451CFEF92A7
:1017F0000F93CF93FC01C081C2FF04C080912124CC
:10180000882351F1C3FF04C080912224882339F03A
:10181000C093792481E0CF910F91EF90089581E0FA
:1018200080932224209195243091962436952795F3
:10183000409193245091942456954795E12C00E0D3
:1018400065E080E098E00E94BB1FC093792481E0AE
:10185000CF910F91EF90089581E080932124209102
:101860009124309192243695279540918F24509160
:10187000902456954795E12C00E065E080E099E0E2
:101880000E94BB1FBFCFCF93FC01C081C0FF04C02B
:1018900080911724811130C0C1FF04C080911824A9
:1018A000811134C0C2FF04C08091192481111AC073
:1018B000C3FF04C080911A2481110AC08C2F809527
:1018C0008F7080936424C093652481E0CF91089544
:1018D00081E08093460680E098E00E94CF1F10923E
:1018E0001A24ECCF81E08093660680E099E00E94A4
:1018F000CF1F10921924DCCF81E08093A60680E0F0
:101900009BE00E94CF1F10921724C6CF81E08093E6
:10191000860680E09AE00E94CF1F10921824C2CF62
:10192000CF93FC01C081C2FF04C0809121248111AA
:1019300016C0C3FF04C080912224811105C0C0934A
:101940007A2481E0CF9108951092222480E098E0DB
:101950000E94CF1FC0937A2481E0CF910895109206
:10196000212480E099E00E94CF1FE3CF0F93CF9313
:10197000DF93FC01C08180912524C2FF09C0882328
:1019800051F1C0937B2481E0DF91CF910F910895B5
:101990008823B9F310922524109240098CE080939B
:1019A000490920E048E164E080EA96E00E94581F7F
:1019B00000E020E340E061E080EA96E00E94851FBD
:1019C0001092382410923924C0937B2481E0DF9157
:1019D000CF910F910895D1E0D09325248091A9064D
:1019E0008C7F8093A9068091A9068C7F8093A9069D
:1019F00023E040E064E080EA96E00E94581F23E084
:101A000040E065E080EA96E00E94581F8CE78093F2
:101A1000800189E080938801109240098CE08093D6
:101A2000490988E6809343098FEF9FEF8093660909
:101A30009093670980E090E8809360099093610932
:101A4000D0934009C0937B2481E0DF91CF910F9127
:101A500008951092642480911724882301F181E075
:101A60008093642489E09DE025E06BE05FE047E03F
:101A700073E030911824332329F070936424862F67
:101A8000952F242F30911924332319F020936424A7
:101A9000892F90911A24911180936424089588E0ED
:101AA0009CE024E06AE05EE046E072E0E2CF109263
:101AB000772480911B24882351F081E08093772440
:101AC00093E080911C24811190937724089592E0F3
:101AD000F8CF1092792480912124882351F084E05A
:101AE000809379249CE08091222481119093792421
:101AF000089598E0F8CF81E0089580E0089581E0AE
:101B0000089581E0089581E0089581E0089581E0DD
:101B1000089581E0089581E0089581E0089581E0CD
:101B2000089580E0089581E0089581E0089581E0BE
:101B3000089581E0089581E0089581E0089581E0AD
:101B4000089581E0089581E0089581E0089581E09D
:101B5000089581E0089581E0089508950895089515
:101B6000089508950895089508950895089508958D
:101B7000089508950895089508950895089508957D
:101B8000089508950895089508950895089508956D
:101B9000089508950895089508950895089508955D
:101BA000089508950895089508950895089508954D
:101BB000089508950895089508950895089508953D
:101BC000089508950895089508950895089508952D
:101BD000089508950895089508950895089508951D
:101BE000089508950895089508950895089508950D
:101BF00008950895089508950895089508950895FD
:101C0000CF93FC01C081C0FF15C021E040E064E03B
:101C100080E696E00E946D1F21E040E064E080E8ED
:101C200096E00E946D1F21E040E064E080EA96E0CB
:101C30000E946D1FC093A52481E0CF910895CF939A
:101C4000FC01C081C0FF15C021E040E064E080E6F7
:101C500096E00E946D1F21E040E064E080E896E09D
:101C60000E946D1F21E040E064E080EA96E00E945F
:101C70006D1FC0939E2481E0CF910895CF93FC0106
:101C8000C081C0FF15C021E040E064E080E696E03E
:101C90000E946D1F21E040E064E080E896E00E9431
:101CA0006D1F21E040E064E080EA96E00E946D1F35
:101CB000C0939F2481E0CF910895CF93FC01C08110
:101CC000C0FF15C021E040E064E080E696E00E949D
:101CD0006D1F21E040E064E080E896E00E946D1F07
:101CE00021E040E064E080EA96E00E946D1FC0932E
:101CF000A42481E0CF910895CF93FC01C081C0FF5F
:101D000015C021E040E064E080E696E00E946D1F8F
:101D100021E040E064E080E896E00E946D1F21E051
:101D200040E064E080EA96E00E946D1FC093A0242A
:101D300081E0CF910895CF93FC01C081C0FF15C011
:101D400021E040E064E080E696E00E946D1F21E023
:101D500040E064E080E896E00E946D1F21E040E0F2
:101D600064E080EA96E00E946D1FC093A62481E0A3
:101D7000CF9108951F93CF93DF9300D000D0CDB7BC
:101D8000DEB7FC0181818093662480818093672483
:101D9000828180936824218120936C249081909388
:101DA0006D24828180936E24309190234091912301
:101DB0001C821D821E8219821A821B82413031F1DF
:101DC000313049F480916F248983809170248A8313
:101DD000809171248B8383E88093A2001091A30BE0
:101DE0001092A30BBE016F5F7F4FCE0104960E943D
:101DF0003F1B1093A30B87E88093A20081E02696F7
:101E0000CDBFDEBFDF91CF911F9108952C839D83BD
:101E10008E83D6CF1F93CF93DF9300D000D0CDB762
:101E2000DEB7FC01818180936924808180936A24DC
:101E3000828180936B24218120936F2490819093E1
:101E4000702482818093712430919023409191235A
:101E50001C821D821E8219821A821B82413001F16E
:101E6000313019F429839A838B8383E88093A2000D
:101E70001091A30B1092A30BBE016F5F7F4FCE0199
:101E800004960E943F1B1093A30B87E88093A20047
:101E900081E02696CDBFDEBFDF91CF911F910895DF
:101EA00040916C244C8340916D244D8340916E246D
:101EB0004E83D6CF1F93CF93DF9300D000D0CDB702
:101EC000DEB7FC0181818093662480818093672442
:101ED00082818093682484818093692483818093A4
:101EE0006A24858180936B24518150936C244081B6
:101EF00040936D24328130936E24248120936F248B
:101F000093819093702485818093712460919023B4
:101F1000709191231C821D821E8219821A821B825B
:101F2000713001F1613019F429839A838B8383E83E
:101F30008093A2001091A30B1092A30BBE016F5FC0
:101F40007F4FCE0104960E943F1B1093A30B87E89E
:101F50008093A20081E02696CDBFDEBFDF91CF91B6
:101F60001F9108955C834D833E83DCCFFF920F93D6
:101F70001F93CF93DF9300D000D0CDB7DEB7FC0125
:101F80000081118100FF03C080E48093660601FF99
:101F900003C080E48093860602FF03C080E4809340
:101FA000A60603FD85C004FD7BC005FD71C006FFCC
:101FB00003C080E48093250607FF03C080E280937E
:101FC000250610FD1092912311FD10929023C80157
:101FD00088279370892B19F18091902390919123F8
:101FE0001C821D821E8219821A821B82913009F482
:101FF00067C0813009F442C083E88093A200F0906A
:10200000A30B1092A30BBE016F5F7F4FCE0104960E
:102010000E943F1BF092A30B87E88093A20012FF5F
:1020200003C081E08093A60613FF03C081E0809384
:10203000860614FF03C081E08093660615FF03C087
:1020400081E080934606C8018095909520912E24CA
:1020500030912F248223932380932E2490932F2436
:1020600000932A2410932B2481E02696CDBFDEBF57
:10207000DF91CF911F910F91FF90089580916F2470
:102080008983809170248A83809171248B83B4CF5B
:1020900080E88093A60661E08091A6246AD787CF66
:1020A00080E88093860661E08091A52462D77DCF89
:1020B00080E88093660661E08091A4245AD773CFAC
:1020C00090916C249C8390916D249D8390916E24BB
:1020D0009E83813009F090CFD1CFEF92FF920F9382
:1020E0001F93CF93DF9300D000D0CDB7DEB7FC01B4
:1020F00000811181F0909123E090902380E400FF13
:1021000031C18093650680913A2480FDA2C180E4AC
:1021100001FF25C18093850680913A2481FD8FC1FE
:1021200080E402FF19C18093A50680913A2482FDC4
:102130007CC180E803FFF2C08093650660E0809177
:10214000A42417D780913A2483FD65C180E804FF59
:10215000EEC08093850660E08091A5240AD7809127
:102160003A2484FD4EC180E805FFEAC08093A506AD
:1021700060E08091A624FDD680913A2485FD37C188
:1021800080E406FFE6C08093260680913A2486FD0F
:1021900024C180E207FF8EC08093260680913A24F6
:1021A00087FD11C110FF8AC081E080939123809147
:1021B0003A2490913B2490FF04C180914C2490914B
:1021C0004D2401968093092490930A2481E011FD07
:1021D0007AC01092902390E0F81609F489C01C820E
:1021E0001D821E8219821A821B82813009F48CC0E2
:1021F000913049F480916F248983809170248A837F
:10220000809171248B8383E88093A200F090A30BCC
:102210001092A30BBE016F5F7F4FCE0104960E9408
:102220003F1BF092A30B87E88093A20081E012FF8E
:10223000A5C08093A50680913A2490913B2492FDFD
:10224000B4C081E013FF97C08093850680913A2443
:1022500090913B2493FD9FC081E014FF89C080933F
:10226000650680913A2490913B2494FD8AC081E0D8
:1022700015FF7BC08093450680913A2490913B24C2
:1022800095FF09C080915624909157240196809320
:1022900013249093142400932E2410932F2481E070
:1022A0002696CDBFDEBFDF91CF911F910F91FF909A
:1022B000EF9008958093250610FD76CF109291231C
:1022C00080E011FF86CF91E09093902320913A24F3
:1022D00030913B2431FF73C020914E2430914F2424
:1022E0002F5F3F4F20930B2430930C24F81277CFAD
:1022F000E91609F49BCF1C821D821E8219821A8264
:102300001B82813009F074CF80916C248C83809182
:102310006D248D8380916E248E836ACF80936606B0
:1023200061E08091A42425D680E804FD12CF80933B
:10233000860661E08091A5241CD680E805FD16CFB5
:102340008093A60661E08091A62413D680E406FD62
:102350001ACF809325061DCF8093A606EACE8093E0
:102360008606DECE80936606D2CE8093460693CF55
:10237000809366067CCF809386066ECF8093A606F8
:1023800060CF80915424909155240196809311241C
:10239000909312246CCF80915224909153240196F3
:1023A00080930F249093102457CF809150249091C4
:1023B0005124019680930D2490930E2442CF91E0F6
:1023C0000BCF81E07ECF80914A2490914B240196DF
:1023D0008093072490930824E5CE8091482490911F
:1023E000492401968093052490930624D2CE8091AF
:1023F00046249091472401968093032490930424CB
:10240000BFCE80914424909145240196809301246D
:1024100090930224A8CE8091422490914324019667
:102420008093FF239093002491CE8091402490913B
:10243000412401968093FD239093FE237ACE8091D0
:102440003E2490913F2401968093FB239093FC239C
:1024500067CE80913C2490913D2401968093F9238E
:102460009093FA2354CEFF920F931F93CF93DF9351
:1024700000D000D0CDB7DEB7FC010081118100FF94
:1024800007C080E48093650680913A2480FD51C1A5
:1024900001FF07C080E48093850680913A2481FD86
:1024A0003EC102FF07C080E48093A50680913A24D4
:1024B00082FDE9C003FDF2C004FD06C105FD1AC19D
:1024C00006FF07C080E48093260680913A2486FDAB
:1024D000D0C007FF07C080E28093260680913A248F
:1024E00087FDBDC010FF09C081E0809391238091DA
:1024F0003A2490913B2490FDA8C011FF09C081E0CF
:102500008093902380913A2490913B2491FD93C035
:10251000C80188279370892B19F18091902390919D
:1025200091231C821D821E8219821A821B82913085
:1025300009F413C1813009F406C183E88093A20035
:10254000F090A30B1092A30BBE016F5F7F4FCE01E3
:1025500004960E943F1BF092A30B87E88093A20091
:1025600012FF09C081E08093A50680913A249091E2
:102570003B2492FD56C013FF09C081E0809385067D
:1025800080913A2490913B2493FD41C014FF09C0EF
:1025900081E08093650680913A2490913B2494FDDC
:1025A0002CC015FF12C081E08093450680913A242B
:1025B00090913B2495FF09C0809156249091572417
:1025C0000196809313249093142480912E2490914B
:1025D0002F24802B912B80932E2490932F240093D3
:1025E00028241093292481E02696CDBFDEBFDF91F9
:1025F000CF911F910F91FF90089580915424909155
:10260000552401968093112490931224CACF80916F
:10261000522490915324019680930F249093102478
:10262000B5CF8091502490915124019680930D2430
:1026300090930E24A0CF80914E2490914F24019628
:1026400080930B2490930C2463CF80914C24909121
:102650004D2401968093092490930A244ECF8091B3
:102660004A2490914B240196809307249093082448
:1026700039CF809148249091492401968093052474
:102680009093062426CF8091402490914124019676
:102690008093FD239093FE2303FF0ECF80E8809369
:1026A000650660E08091A42464D480913A2483FF7D
:1026B00003CF809142249091432401968093FF237D
:1026C0009093002404FFFACE80E88093850660E0B2
:1026D0008091A5244ED480913A2484FFEFCE80913E
:1026E00044249091452401968093012490930224E0
:1026F00005FFE6CE80E88093A50660E08091A624E1
:1027000038D480913A2485FFDBCE80914624909185
:10271000472401968093032490930424D1CE809182
:102720003E2490913F2401968093FB239093FC23B9
:10273000B8CE80913C2490913D2401968093F9235A
:102740009093FA23A5CE80916F2489838091702481
:102750008A83809171248B83F0CE90916C249C832A
:1027600090916D249D8390916E249E83813009F019
:10277000E4CEE9CFFF920F931F93CF93DF9300D066
:1027800000D0CDB7DEB7FC010081118100FF07C08A
:102790008091680686FF39C180E48093670601FF57
:1027A00007C08091880686FF1FC180E4809387065A
:1027B00002FF07C08091A80686FF05C180E48093D0
:1027C000A70603FF0FC08091680687FDB8C180E8A7
:1027D0008093650660E08091A424CBD380913A2455
:1027E00083FD7AC104FF0FC08091880687FDAFC1C9
:1027F00080E88093850660E08091A524BAD380911B
:102800003A2484FD73C105FF0FC08091A80687FD9F
:102810008EC180E88093A50660E08091A624A9D3AC
:1028200080913A2485FD6CC106FF07C0809128067F
:1028300086FD33C180E48093270607FF07C080919F
:10284000280685FD19C180E28093270610FF07C086
:1028500080919123882309F4A3C01092912311FF42
:1028600007C080919023882309F487C01092902399
:10287000C80188279370892B11F180919023909142
:1028800091231C821D821E8219821A821B82913022
:1028900009F440C1813009F411C183E88093A2009A
:1028A000F090A30B1092A30BBE016F5F7F4FCE0180
:1028B0000496E5D6F092A30B87E88093A20012FF5E
:1028C00007C08091A80680FF45C081E08093A706DD
:1028D00013FF07C08091880680FFBBC081E0809312
:1028E000870614FF07C08091680680FF9FC081E0C3
:1028F0008093670615FF16C08091480680FDE8C0EA
:1029000081E08093450680913A2490913B2495FF85
:1029100009C08091562490915724019680931324E6
:102920009093142480912E2490912F248027912716
:1029300080932E2490932F2400932C2410932D24E5
:1029400081E02696CDBFDEBFDF91CF911F910F9121
:10295000FF90089581E08093A50680913A2490919C
:102960003B2492FFB5CF8091502490915124019641
:1029700080930D2490930E24ABCF81E0809390231D
:1029800080913A2490913B2491FF72CF80914E2404
:1029900090914F24019680930B2490930C2468CF40
:1029A00081E08093912380913A2490913B2490FF81
:1029B00056CF80914C2490914D2401968093092408
:1029C00090930A244CCF80E48093A50680913A240A
:1029D00082FFF7CE8091402490914124019680930C
:1029E000FD239093FE23EDCE80E4809385068091B5
:1029F0003A2481FFDDCE80913E2490913F240196C0
:102A00008093FB239093FC23D3CE80E480936506D0
:102A100080913A2480FFC3CE80913C2490913D2444
:102A200001968093F9239093FA23B9CE81E08093A5
:102A3000650680913A2490913B2494FF5BCF80916E
:102A4000542490915524019680931124909312243C
:102A500051CF81E08093850680913A2490913B2468
:102A600093FF3FCF809152249091532401968093FD
:102A70000F249093102435CF80E280932606809116
:102A80003A2487FFE3CE80914A2490914B2401960B
:102A90008093072490930824D9CE80E4809326065F
:102AA00080913A2486FFC9CE809148249091492490
:102AB00001968093052490930624BFCE80916F24C5
:102AC0008983809170248A83809171248B83E5CEE1
:102AD00081E08093470626CF809142249091432441
:102AE00001968093FF23909300247CCE8091442410
:102AF000909145240196809301249093022483CEE3
:102B000080914624909147240196809303249093CA
:102B100004248ACE90916C249C8390916D249D8393
:102B200090916E249E83813009F0B7CEC7CF80E8A4
:102B30008093A70662E08091A6241BD275CE80E820
:102B40008093670662E08091A42413D24BCE80E884
:102B50008093870662E08091A5240BD254CE1F9308
:102B6000CF93DF9300D000D0CDB7DEB71C821D829B
:102B70001E8219821A821B82813021F1613049F450
:102B800080916F248983809170248A83809171243D
:102B90008B8383E88093A2001091A30B1092A30B68
:102BA000BE016F5F7F4FCE01049669D51093A30BD2
:102BB00087E88093A2002696CDBFDEBFDF91CF913C
:102BC0001F91089580916C248C8380916D248D8356
:102BD00080916E248E83D2CF8F929F92AF92BF92BC
:102BE000CF92DF92EF92FF920F93CF93DF93EC019E
:102BF00068307105E0F16034710508F478C0603820
:102C0000710508F454C06F3F710509F008F48FC0D6
:102C1000693582E07807F8F46B01E12CF12C60E073
:102C200072E18AE790E0A70196010E94772B4901A3
:102C30005A0160E074E284EF90E0A70196010E94DF
:102C4000772BBA01A901EE24E39401E0940162E03C
:102C5000CE010E94BB1FDF91CF910F91FF90EF90AB
:102C6000DF90CF90BF90AF909F908F9008956B01B1
:102C7000E12CF12C64E274EF80E090E0A701960172
:102C80000E94772B49015A0168E478EE81E090E0D8
:102C9000A70196010E94772BBA01A901EE24E394C3
:102CA00001E0940166E0CE010E94BB1FD4CF6B010E
:102CB000E12CF12C60E874E88EE190E0A701960128
:102CC0000E94772B49015A0160E079E08DE390E0A2
:102CD000A70196010E94772BBA01A901EE24E39483
:102CE00001E0940164E0CE010E94BB1FB4CF6B01F0
:102CF000E12CF12C60E970ED83E090E0A7019601F2
:102D00000E94772B49015A0160E271EA87E090E066
:102D1000A70196010E94772BBA01A901EE24E39442
:102D200001E0940165E0CE010E94BB1F94CF6B01CE
:102D3000E12CF12C60E079E08DE390E0A7019601B1
:102D40000E94772B49015A0160E072E18AE790E026
:102D5000A70196010E94772BBA01A901EE24E39402
:102D600001E0940163E0CE010E94BB1F74CF8F92FB
:102D70009F92AF92BF92CF92DF92EF92FF920F930A
:102D8000CF93DF93FC01C081C0FF05C080911B245D
:102D9000882309F45DC0C1FF04C080911C248823EE
:102DA00079F0C093772481E0DF91CF910F91FF906C
:102DB000EF90DF90CF90BF90AF909F908F9008954D
:102DC00081E0809386068AEA8A95F1F700C0C09078
:102DD0008924D0908A24E8E0CE16D10408F449C0B2
:102DE000F0E4CF16D10408F464C080E8C816D1041A
:102DF00008F47FC0EFEFCE16D10409F008F499C0B3
:102E0000F9E5CF16F2E0DF06F8F4E12CF12C60E0F2
:102E100072E18AE790E0A70196010E94772B4901B1
:102E20005A0160E074E284EF90E0A70196010E94ED
:102E3000772BBA01A901EE24E39401E0940162E04A
:102E400080E09AE00E94BB1F81E080931C24A9CF00
:102E5000D1E0D093A606FAEAFA95F1F700C06091A6
:102E600086247091872480E09BE0B6DED0931B24FB
:102E700092CFE12CF12C64E274EF80E090E0A701A6
:102E800096010E94772B49015A0168E478EE81E0AF
:102E900090E0A70196010E94772BBA01A901EE24C8
:102EA000E39401E0940166E080E09AE00E94BB1F99
:102EB000CBCFE12CF12C60E970ED83E090E0A7012D
:102EC00096010E94772B49015A0160E271EA87E07E
:102ED00090E0A70196010E94772BBA01A901EE2488
:102EE000E39401E0940165E080E09AE00E94BB1F5A
:102EF000ABCFE12CF12C60E874E88EE190E0A70103
:102F000096010E94772B49015A0160E079E08DE338
:102F100090E0A70196010E94772BBA01A901EE2447
:102F2000E39401E0940164E080E09AE00E94BB1F1A
:102F30008BCFE12CF12C60E079E08DE390E0A701EC
:102F400096010E94772B49015A0160E072E18AE7FD
:102F500090E0A70196010E94772BBA01A901EE2407
:102F6000E39401E0940163E080E09AE00E94BB1FDB
:102F70006BCFE82F8F7039F08E2F90E0FC013197E6
:102F8000E730F10508F008958827E250FF4F8F4F92
:102F90000C94932B662309F44DC0613009F07CC07A
:102FA000609366060895662309F440C0613009F015
:102FB0006CC0609386060895662309F43FC06130B3
:102FC00009F040C06093A6060895662359F1613068
:102FD00009F046C080E28093A60608956623F1F0CA
:102FE0006130B9F580E2809386060895662391F0FA
:102FF000613009F043C080E280936606089566233D
:1030000029F06130A1F560934606089581E0809330
:103010004506089580E280936506089580E28093D6
:103020008506089580E28093A506089581E0809347
:103030008506089581E080936506089581E0809378
:10304000A5060895623009F09ECF81E08093A7061F
:103050000895623009F097CF80E280938706089543
:10306000623009F090CF80E28093A7060895623025
:1030700009F089CF81E0809347060895623009F016
:1030800082CF80E2809367060895623009F07BCF9B
:1030900081E0809387060895623009F074CF81E063
:1030A0008093670608950F9320E048E164E080E68E
:1030B00096E0FED620E048E165E080E696E0F8D6AE
:1030C00020E048E164E080E896E0F2D620E048E1C4
:1030D00065E080E896E0ECD620E048E164E080EA34
:1030E00096E0E6D620E048E165E080EA96E0E0D6AA
:1030F00000E020E340E061E080E696E006D720E3D0
:1031000040E061E080E896E000D720E340E061E045
:1031100080EA96E0FAD621E040E060E080E496E0C4
:10312000DCD621E040E060E080E696E0D6D621E003
:1031300040E060E080E896E0D0D621E040E060E04A
:1031400080EA96E0CAD621E040E066E080E296E0C0
:10315000C4D621E040E065E080E296E0BED620E003
:1031600040E065E080E496E0B8D621E040E066E02B
:1031700080E696E0B2D621E040E067E080E696E0A7
:10318000ACD621E040E066E080E896E0A6D621E0FB
:1031900040E067E080E896E0A0D621E040E066E00D
:1031A00080EA96E09AD621E040E067E080EA96E087
:1031B00094D681E0809346068093660680938606C7
:1031C0008093A60680E48093250690E290932506DE
:1031D000909346068093660680E880936606E091A9
:1031E000A4248E2F8F7091F580E48093860680E86A
:1031F00080938606E091A5248E2F8F70D1F480E411
:103200008093A60680E88093A606E091A6248E2FE0
:103210008F7011F40F9108958E2F90E0FC0131977B
:10322000E730F105B8F78827EB5FFE4F8F4F0C941E
:10323000932B8E2F90E0FC013197E730F105F8F6E3
:103240008827E45FFE4F8F4F0C94932B8E2F90E0D6
:10325000FC013197E730F10538F68827ED5EFE4F27
:103260008F4F0C94932B81E080936606D3CF81E03F
:1032700080938606CFCF81E08093A606CBCF80E2F5
:103280008093A606C7CF80E280938606C3CF80E2F4
:1032900080936606BFCF81E080934606BBCF81E076
:1032A00080936606A1CF81E0809386069DCF81E062
:1032B0008093A60699CF80E28093A60695CF80E200
:1032C0008093860691CF80E2809366068DCF81E061
:1032D0008093460689CF81E08093460690CF81E0B7
:1032E000809366068CCF81E08093860688CF81E04C
:1032F0008093A60684CF80E28093A60680CF80E2EA
:10330000809386067CCF80E28093660678CFD0914A
:103310002624C09135248D2F8E7F80932624909172
:10332000680692959170892B809326248C2F8E7F2E
:10333000809335249091680695FB992790F9892B05
:10334000809335248091680684FF05C060E08091F9
:103350009E240FDE04C061E080919E240ADE8091ED
:10336000762480FF1BC080912624D81779F061E075
:1033700080E20E9445258091A924882339F090910C
:1033800069069C7F9093690680938C2380913524F5
:10339000C81721F061E08BE20E9445251895D09175
:1033A0002624C09135249D2F9D7F909326248091C3
:1033B000880684FF02C082E001C080E0892B8093F0
:1033C00026249C2F9D7F909335248091880685FF2D
:1033D00002C082E001C080E0892B80933524809177
:1033E000880684FF05C060E080919F24C2DD04C090
:1033F00061E080919F24BDDD8091762480FF1BC019
:1034000080912624D81779F061E080E20E9445255A
:103410008091A924882339F0909189069C7F90930C
:10342000890680938B2380913524C81721F061E0B1
:103430008BE20E9445251895D0912624C091352411
:103440009D2F9B7F909326248091A80684FF02C025
:1034500084E001C080E0892B809326249C2F9B7FF1
:10346000909335248091A80685FF02C084E001C0B6
:1034700080E0892B809335248091A80684FF05C0C5
:1034800060E08091A02475DD04C061E08091A024FB
:1034900070DD8091762480FF1BC080912624D81790
:1034A00079F061E080E20E9445258091A92488237B
:1034B00039F09091A9069C7F9093A90680938A2366
:1034C00080913524C81721F061E08BE20E944525E8
:1034D0001895809117248823D9F08091AA248823F5
:1034E000B9F08091B2249091B32401978093260B78
:1034F0009093270B8091BA249091BB248093280B42
:103500009093290B8091AE248093000B1092AA24F3
:1035100080911B24882359F08091762483FF07C073
:1035200081E08093852461E08CE50E944525189513
:1035300080911B24882371F080918F23882351F080
:1035400010928F2381E08093A60680E09BE027D530
:1035500010921B241895809118248823D9F080910B
:10356000AB248823B9F08091B4249091B5240197BD
:103570008093260A9093270A8091BC249091BD24C1
:103580008093280A9093290A8091AF248093000A9F
:103590001092AB2480911C24882359F080917624CA
:1035A00084FF07C081E08093882461E08EE50E945B
:1035B0004525189580911C24882371F080918E23D5
:1035C000882351F010928E2381E08093860680E05C
:1035D0009AE0E5D410921C24189580911924882330
:1035E000D9F08091AC248823B9F08091B6249091D1
:1035F000B724019780932609909327098091BE24D0
:103600009091BF2480932809909329098091B02438
:10361000809300091092AC24189580911A24882375
:10362000D9F08091AD248823B9F08091B82490918D
:10363000B924019780932608909327088091C0248D
:103640009091C12480932808909329088091B124F7
:10365000809300081092AD2418950E94410180913A
:10366000A20087688093A2007894FFCFE0E4F6E0A0
:1036700080818062808380E2809346060895CF93A4
:10368000DF93EC01DB018881E2ECF4E28083898145
:1036900081838A8182838C91838311968C91119787
:1036A000848312968C91858396C000934506000012
:1036B0000000000000000000000000000000009377
:1036C00046060000000000000000000000000000AE
:1036D00000000000000000000000000000000000EA
:1036E000000000000000000000000000000008953D
:1036F00000934506000000000000000000000000EC
:1037000000000000000000000000000000000000B9
:1037100000000000000000000000000000000000A9
:1037200000934606000000000000000000000000BA
:103730000000000000000000000000000000000089
:1037400008950093450600000000000000000000FE
:10375000000000000000009346060000000000008A
:103760000000000000000000000000000000000059
:103770000000000000000000000000000000000049
:1037800000000000089500934506000000000000BE
:103790000000000000000000000000000000000029
:1037A0000000000000000000000000000000000019
:1037B000000000000000009346060000000000002A
:1037C00000000000000000000000000000000000F9
:1037D0000000000008950F930F9200E20080019016
:1037E00007FE63DF07FC84DF06FE5FDF06FC80DF89
:1037F00005FE5BDF05FC7CDF04FE57DF04FC78DFA1
:1038000003FE53DF03FC74DF02FE4FDF02FC70DFB8
:1038100001FE4BDF01FC6CDF00FE93DF00FCB3DF39
:10382000019007FE42DF07FC63DF06FE3EDF06FC79
:103830005FDF05FE3ADF05FC5BDF04FE36DF04FCDC
:1038400057DF03FE32DF03FC53DF02FE2EDF02FCF4
:103850004FDF01FE2ADF01FC4BDF00FE72DF00FCC0
:1038600092DF019007FE21DF07FC42DF06FE1DDF2D
:1038700006FC3EDF05FE19DF05FC3ADF04FE15DF1E
:1038800004FC36DF03FE11DF03FC32DF02FE0DDF36
:1038900002FC2EDF01FE09DF01FC2ADF00FE51DF02
:1038A00000FC71DF019007FE00DF07FC21DF06FE50
:1038B000FCDE06FC1DDF05FEF8DE05FC19DF04FE5C
:1038C000F4DE04FC15DF03FEF0DE03FC11DF02FE74
:1038D000ECDE02FC0DDF01FEE8DE01FC09DF00FE8C
:1038E00030DF00FC50DF019007FEDFDE07FC00DF69
:1038F00006FEDBDE06FCFCDE05FED7DE05FCF8DEA0
:1039000004FED3DE04FCF4DE03FECFDE03FCF0DEB7
:1039100002FECBDE02FCECDE01FEC7DE01FCE8DECF
:1039200000FE0FDF00FC2FDF019007FEBEDE07FC6C
:10393000DFDE06FEBADE06FCDBDE05FEB6DE05FCDB
:10394000D7DE04FEB2DE04FCD3DE03FEAEDE03FCF3
:10395000CFDE02FEAADE02FCCBDE01FEA6DE01FC0B
:10396000C7DE00FEEEDE00FC0EDF0F900F91DF9150
:10397000CF9108955058BB27AA270ED048C139D1FE
:1039800030F03ED120F031F49F3F11F41EF42EC1EF
:103990000EF4E095E7FB24C1E92F4AD180F3BA1772
:1039A000620773078407950718F071F49EF562C1EA
:1039B0000EF4E0950B2EBA2FA02D0B01B90190014A
:1039C0000C01CA01A0011124FF27591B99F0593F8E
:1039D00050F4503E68F11A16F040A22F232F342FD6
:1039E0004427585FF3CF469537952795A795F04024
:1039F0005395C9F77EF41F16BA0B620B730B840B39
:103A0000BAF09150A1F0FF0FBB1F661F771F881FF0
:103A1000C2F70EC0BA0F621F731F841F48F4879548
:103A200077956795B795F7959E3F08F0B3CF939537
:103A3000880F08F09927EE0F9795879508950CD079
:103A4000E6C0DED040F0D5D030F021F45F3F19F071
:103A5000C7C0511110C1CAC0EBD098F39923C9F364
:103A60005523B1F3951B550BBB27AA276217730784
:103A7000840738F09F5F5F4F220F331F441FAA1F38
:103A8000A9F333D00E2E3AF0E0E830D091505040F8
:103A9000E695001CCAF729D0FE2F27D0660F771FA6
:103AA000881FBB1F261737074807AB07B0E809F088
:103AB000BB0B802DBF01FF2793585F4F2AF09E3F1D
:103AC000510568F08DC0D7C05F3FECF3983EDCF342
:103AD000869577956795B795F7959F5FC9F7880F96
:103AE000911D9695879597F90895E1E0660F771FE8
:103AF000881FBB1F621773078407BA0720F0621B79
:103B0000730B840BBA0BEE1F88F7E095089598D0DD
:103B100088F09F5790F0B92F9927B751A0F0D1F0B6
:103B2000660F771F881F991F1AF0BA95C9F712C040
:103B3000B13081F09FD0B1E008959CC0672F782FFD
:103B40008827B85F39F0B93FCCF3869577956795AC
:103B5000B395D9F73EF490958095709561957F4F18
:103B60008F4F9F4F0895E89409C097FB3EF49095BE
:103B70008095709561957F4F8F4F9F4F9923A9F046
:103B8000F92F96E9BB279395F695879577956795D5
:103B9000B795F111F8CFFAF4BB0F11F460FF1BC019
:103BA0006F5F7F4F8F4F9F4F16C0882311F096E9AC
:103BB00011C0772321F09EE8872F762F05C066235A
:103BC00071F096E8862F70E060E02AF09A95660F13
:103BD000771F881FDAF7880F9695879597F90895CC
:103BE00097F99F6780E870E060E008959FEF80ECB0
:103BF000089500240A941616170618060906089553
:103C000000240A9412161306140605060895092EB8
:103C10000394000C11F4882352F0BB0F40F4BF2B27
:103C200011F460FF04C06F5F7F4F8F4F9F4F089567
:103C300057FD9058440F551F59F05F3F71F047955D
:103C4000880F97FB991F61F09F3F79F08795089542
:103C5000121613061406551FF2CF4695F1DF08C061
:103C6000161617061806991FF1CF8695710561057E
:103C700008940895E894BB2766277727CB0197F926
:103C800008950BD0C4CFB5DF28F0BADF18F0952324
:103C900009F0A6CFABCF1124EECFCADFA0F3959FDA
:103CA000D1F3950F50E0551F629FF001729FBB2723
:103CB000F00DB11D639FAA27F00DB11DAA1F649FCF
:103CC0006627B00DA11D661F829F2227B00DA11D82
:103CD000621F739FB00DA11D621F839FA00D611D08
:103CE000221F749F3327A00D611D231F849F600D29
:103CF000211D822F762F6A2F11249F5750408AF062
:103D0000E1F088234AF0EE0FFF1FBB1F661F771FED
:103D1000881F91505040A9F79E3F510570F060CF29
:103D2000AACF5F3FECF3983EDCF3869577956795D5
:103D3000B795F795E7959F5FC1F7FE2B880F911D0B
:103D40009695879597F90895222309F45BC030E290
:103D50003093520038E0309350003091510033FFDF
:103D6000FCCF611538E4730738EE830731E0930721
:103D700009F482C0611534E2730734EF83079105BB
:103D800009F47CC0611532E173073AE783079105B6
:103D900009F44BC0611539E073073DE383079105D2
:103DA00009F46EC0603834E873073EE1830791057B
:103DB00009F460C0603432E473073FE08307910583
:103DC00009F462C0603231EA730737E08307910576
:103DD00009F458C0603930ED730733E0830791056B
:103DE00009F454C0683438EE730731E08307910555
:103DF00009F44EC06432744F8105910509F04AC040
:103E000084E414C032E2309352003AE03093500020
:103E10003091510031FFFCCF3091510033FDA1CFE3
:103E20003091510033FFF8CF9CCF8CE098ED94BFD8
:103E3000222399F023E02093400094BF8093410017
:103E4000442329F088ED84BF81E08093420088ED0F
:103E500084BF81E080938000089521E0209340009A
:103E600094BF8093410094BF82E0809356002093DA
:103E70006000E6CF8CE1DACF80E0D8CF84E0D6CF07
:103E800084E1D4CF8CE2D2CF84E2D0CF84E3CECF12
:103E90008CE3CCCF80E0089588ED84BF81E08093EF
:103EA0008000089588ED84BF83E080938000FFCF79
:103EB000FC01308181E090E0062E01C0880F0A9459
:103EC000EAF78095832380837096E60FF11D808149
:103ED000422B807C482B40830895FC01308181E097
:103EE00090E0062E01C0880F0A94EAF7382B308341
:103EF0007096E60FF11D8081807C842B80832111D8
:103F000003C080818760808308950F93FC01318511
:103F1000842F90E0880F991FA3E0B0E0082E01C025
:103F2000AA0F0A94EAF7A095A323082E01C0660FF2
:103F30000A94EAF7A62BA18741110FC00023A9F02C
:103F40002287248581E090E0042E01C0880F0A9426
:103F5000EAF7282B24870F910895413091F701113A
:103F600008C08385822B8387ECCF8285822B828752
:103F7000E8CF2387E6CFEF920F93FC0110828CE00D
:103F800081874150510946A357A320A731A7068333
:103F9000E78283E1818360830F91EF900895FC01B4
:103FA00010822CE0218708954F925F926F927F924A
:103FB0008F929F92AF92BF92EF92FF920F931F93B7
:103FC0002B013C0149015A0120E030E0A901C50163
:103FD000B4010E943B2B882309F43EC0C301B20107
:103FE000C2DDA50194012BDD20E030E040E05FE37D
:103FF000C2DC8DDD6115710521E082079105A0F419
:1040000021E0F8012083F7016083718381E01F9133
:104010000F91FF90EF90BF90AF909F908F907F9007
:104020006F905F904F9008959695879577956795D7
:1040300061157105F1E08F07910580F096958795E0
:104040007795679561157105F1E08F07910550F43B
:1040500023E0F8012083D7CF80E0D9CF22E0F80118
:104060002083D1CF969587957795679561157105D2
:10407000F1E08F07910588F0A3E0969587957795F5
:104080006795AA95D1F761157105F1E08F07910544
:1040900040F425E0F8012083B6CF24E0F801208326
:1040A000B2CF9695879577956795969587957795ED
:1040B000679561157105F1E08F07910520F426E001
:1040C000F8012083A0CF969587957795679596956B
:1040D00087957795679561157105F1E08F079105D3
:1040E00008F0BACF27E0F80120838DCFFC011082C1
:1040F0008CE081874150510946A357A326836083F2
:1041000008952091CF0127FDFCCF8093C0019093AB
:10411000C1011092C20186E08093CA0188ED84BF7C
:1041200081E08093CB018091C40108952091CF015B
:1041300027FDFCCF2091CF0121FF08C026E320936B
:10414000CA0128ED24BF21E02093CB0123E3209373
:10415000CA018093C0019093C1011092C201609383
:10416000C40185E38093CA0188ED84BF81E0809318
:10417000CB010895E1E7F0E090819D7F908391E08D
:1041800090930002E1E0F2E020E62083208120838A
:104190008093020285E08093040290932002E2E281
:1041A000F2E01082808180830895880F880F880F45
:1041B0008093210280912002806880932002809168
:1041C000230280FFFCCF81E08093230280912402B0
:1041D000909125029F702091332330913423821BCC
:1041E000930B0895FF920F931F93CF93DF938C014E
:1041F000C7E0D0E0F12C08C0F1100BC0CE0196DF73
:104200002196C032D10571F0F80161918F016111E1
:10421000F3CF60E0CE018ADFFF24F3942196C03211
:10422000D10591F7DF91CF911F910F91FF900895E4
:10423000CF93962F803208F47FC0282F30E0205291
:104240003109F901E852FD4D5081220F331FF90168
:10425000EE5DFD4DC081F901E459FE4D20813181B3
:1042600020939823309399239093CB24252F2F705C
:104270002C9FC02D1124EAE0EC0FE093CC24809316
:10428000CD242FEF2093CE2450615093CF244111A1
:104290006BC08091942390919523A0919623B09127
:1042A00097238093D0249093D124A093D224B093C9
:1042B000D32420919223309193232093D4243093BC
:1042C000D5248E2F90E08E3F9105A4F52091982360
:1042D0003091992340E0842F90E0F901E80FF91F15
:1042E0005081FC01EA52FB4D50834F5F4C13F3CFDA
:1042F0002091CC242E5F30E0215031091216130694
:104300000CF09EC080E090E040E050E0FC01E553FE
:10431000FB4D8081580F4F5F842F90E082179307E9
:10432000ACF3F901E553FB4D508380913523813087
:1043300009F46BC0CF9108958D30E0F7282F30E05D
:10434000F901E458FC4D5081220F331FF901EE5959
:10435000FC4DC081F901E85BFC4D20813181209347
:1043600098233093992380CF20914C084091AC231F
:104370005091AD236091AE237091AF2320FF21C0F7
:104380004F5F5F4F6F4F7F4F4093D0245093D124A6
:104390006093D2247093D3242091600830916108F7
:1043A0002093D4243093D524883009F08ACF9330D9
:1043B00009F087CF1092D4241092D524E091CC2418
:1043C00080CF4093D0245093D1246093D224709313
:1043D000D32420916008309161082093D424309335
:1043E000D524F0919D23F03DF9F62F303105E0F60C
:1043F0004F5F5F4F6F4F7F4F4093D0245093D12436
:104400006093D2247093D324CFCF83E88093A2000B
:10441000C091A30B9091A30B9C7F9093A30B6091F1
:10442000CC246E5F8BEC94E22FD79091A30B8C2F52
:104430008370892B8093A30B87E88093A2007ACFA7
:1044400050E06FCFCF93E091CE3D2E2F30E024305F
:104450003105BCF090E020E030E0F901EE52F24C82
:104460004081F901E852F24C40839F5F292F30E0F0
:10447000E091CE3D4E2F50E04350510924173507AF
:1044800064F38093CD3DEA5FE093CE3D8091D13DD2
:1044900080618093D13D80914C0880FF40C0809125
:1044A000AC239091AD23A091AE23B091AF230196A0
:1044B000A11DB11D8093D23D9093D33DA093D43DD7
:1044C000B093D53D80916008909161088093D63D6E
:1044D0009093D73DF0E0E253F24C10826091CE3DD4
:1044E00040E0262F30E080E090E0F901E253F24C0A
:1044F000DC01A353B24C20818C91280F20834F5FA5
:104500006091CE3D262F30E0842F90E028173907A8
:1045100064F780913523813079F1CF9108958091AE
:10452000AC239091AD23A091AE23B091AF238093A3
:10453000D23D9093D33DA093D43DB093D53D2091EF
:104540006008309161082093D63D3093D73D40916B
:104550009D23403D09F0BECF2F30310508F0BACF82
:104560000196A11DB11D8093D23D9093D33DA093A0
:10457000D43DB093D53DAECF83E88093A200C091E7
:10458000A30B9091A30B9C7F9093A30B6E5F8DEC7C
:104590009DE37AD69091A30B8C2F8370892B809307
:1045A000A30B87E88093A200CF9108953F924F928A
:1045B0005F926F927F928F929F92AF92BF92CF92B3
:1045C000DF92EF92FF920F931F93CF93DF93CDB7BC
:1045D000DEB73C01962E142FF22E4D885E885CDCEF
:1045E00021E041E060E078E488EE91E0ADDB81E03D
:1045F000809348006092A3237092A4239092A523F5
:104600001093A623E092A7238093A82386E08093AB
:10461000A923F092AA230093AB231092AC2310920B
:10462000AD231092AE231092AF231092B0231092BC
:10463000B12382E090E065DD382E83E090E061DD1B
:10464000982E8FEF981609F4B7C0F31409F489C0B7
:104650006FED80E090E06ADD6F2D82E090E066DD36
:1046600061E083E090E062DD0E94DE0180E090E0A6
:1046700048DD8E3E09F480C080E68093B22380E45A
:104680008093B3230E94F5010E949502A092A1237A
:10469000B092A223C0929F23D092A02380929E2307
:1046A00087E090E02EDD8F3F09F4BDC004EB13E2FC
:1046B000E6EFEE2EFF24FA94C701835A93427C0161
:1046C000C701800F911F1DDDF80181938F01F3E277
:1046D0000D3C1F07A9F789E1E4EBF3E2ADECB3E28F
:1046E00001900D928A95E1F721E042E15AE767E0F7
:1046F00080E498E0FBDCE0919D2381E08E0F8093C5
:104700009D23F0E0E05CFC4D808190E00197809378
:1047100068089093690881E08093470820E040E0B2
:1047200066E080E096E0D9DB80E48093050640E017
:1047300060E081E090E093D4F1D48CEA93E2DF91E1
:10474000CF911F910F91FF90EF90DF90CF90BF908E
:10475000AF909F908F907F906F905F904F903F9021
:10476000C1C691E0991274CF0E94DE0180E090E012
:10477000C8DC8E3E09F080CF81E090E0C2DC8093FF
:10478000B223A114B10491F0760185010C0D1D1D19
:10479000F0E26F2E712CC301B4DCF70181937F012D
:1047A000FFEF6F1A7F0AE016F106A9F780E8809301
:1047B000B3230E9495026ACF6F2D82E090E0B6DCB1
:1047C00061E083E090E0B2DC82E090E09ADC382E99
:1047D00083E090E096DC982E8201A7E06A2E712C8F
:1047E000E12C0BC0E1100EC0C301A0DCFFEF6F1A7B
:1047F0007F0A80E26816710489F0F80161918F01E7
:104800006111F0CF60E0C30191DCEE24E394FFEF8F
:104810006F1A7F0A80E26816710479F76FED80E005
:1048200090E084DC12CF720107E010E0D12C0AC0C6
:10483000D1100DC0C8017ADC0F5F1F4F0032110587
:1048400009F434CFF70161917F016111F1CF60E08C
:10485000C8016CDCDD24D394EFCF0E94680120E412
:1048600080E092EEA4E0B0E00197A109B1090097C1
:10487000A105B105C9F720930706F2CF8091AC23BB
:104880009091AD23A091AE23B091AF230196A11DCD
:10489000B11D8093AC239093AD23A093AE23B0932E
:1048A000AF238091F1238F5F8093F1238EE090E01E
:1048B000809368089093690881E080939D230E940B
:1048C0002C0380914C08806180934C080E9459030E
:1048D0000E94A6044091B22347FD03C0842F837039
:1048E000B1C0842F8370813009F0ACC08CEA93E2B0
:1048F000809398239093992383E08093CB248EE038
:104900008093CC2488E08093CD248FEF8093CE24B5
:1049100084E18093CF2480914C0880FF18C080915F
:10492000AC239091AD23A091AE23B091AF2301961B
:10493000A11DB11D8093D0249093D124A093D224A3
:10494000B093D324809160089091610826C0809133
:10495000AC239091AD23A091AE23B091AF2380936F
:10496000D0249093D124A093D224B093D324209127
:1049700060083091610850919D23503D71F42F30B3
:10498000310558F40196A11DB11D8093D024909358
:10499000D124A093D224B093D3241092D424109283
:1049A000D5248091AC239091AD23A091AE23B091FA
:1049B000AF238093D6249093D724A093D824B09388
:1049C000D9242091CC242E5F30E0215031091216D9
:1049D000130684F450E060E080E090E0FC01E553D1
:1049E000FB4D8081680F5F5F852F90E082179307F2
:1049F000ACF301C060E0F901E553FB4D60838091A9
:104A00003523813021F583E88093A200C091A30B68
:104A10009091A30B9C7F9093A30B6091CC246E5F2D
:104A20008BEC94E231D49091A30B8C2F8370892B63
:104A30008093A30B87E88093A2004091B223842F38
:104A4000837000C0882339F0813019F400C092E0EF
:104A500003C091E001C094E08091AC23892321F050
:104A600080E48093060605C046FF03C080E480937F
:104A700005060E94580380914C0884FF05C0809170
:104A80009C23811101C0E9DE18959091B2239370A7
:104A9000913009F00895462F63E0CACBCF92DF92A0
:104AA000FF920F931F93CF93DF931F921F92CDB767
:104AB000DEB78D3040F4E82FF0E0DF01A458BC4DA4
:104AC0009C91961759F080E00F900F90DF91CF9155
:104AD0001F910F91FF90DF90CF900895EE0FFF1F71
:104AE000EE59FC4D608171816217730761F7883060
:104AF00009F47DC08A30C9F18B30F9F08C3019F798
:104B00008A01B7E0CB2ED12CF12C0CC0F1100FC0D4
:104B1000C6010CDBFFEFCF1ADF0A80E2C816D10412
:104B200009F47FC0F80161918F016111EFCF60E05E
:104B3000C601FCDAFF24F394EDCFFA0180818130C5
:104B400009F48CC0823009F49AC0843009F4A7C0FB
:104B5000883011F081E0B8CF6FEF87E090E0E6DABF
:104B600083E080939C2381E0AFCFFA01808186FDB2
:104B700004C080E48093060680811091B223837F75
:104B80008093B223FA01808185FF40C015FF5DC08C
:104B900083FF10C081E08093E9231092E723809384
:104BA000E8231092E6238091B223877F8093B2237B
:104BB000FA018081837071F4812F837059F2109211
:104BC000E92349835A830E94290349815A81FA01C2
:104BD00080818370813051F1833009F0BBCF137035
:104BE000133009F4B7CF0E942B0381E06DCFFA0197
:104BF00080819181A281B3818093AC239093AD2376
:104C0000A093AE23B093AF2381E05ECF15FFC0CF5A
:104C100049835A830E94280349815A81FA0180817D
:104C2000B7CF83E080939C2381E04ECF812F8370A8
:104C3000813009F48FCF49835A830E942A03498126
:104C40005A81FA0180818370C7CF49835A830E94B9
:104C5000270349815A81FA0180819ACF8DEC93E232
:104C600049835A83BFDA6FED80E090E05FDA83E03A
:104C700080939C2349815A81FA01808163CF80E02F
:104C800090E049835A833DDA49815A818E3E09F08A
:104C90001ACF83E080939C23FA01808156CF6EEE79
:104CA00080E090E049835A8341DA6091B22381E049
:104CB00090E03CDA8091A1239091A22349815A810E
:104CC000892BC9F000E010E0E0919F23F091A02330
:104CD000E00FF11F6081C801809649835A8326DA6C
:104CE0000F5F1F4F8091A1239091A22349815A8188
:104CF0000817190748F383E080939C23FA01808109
:104D000027CF0E942C038091680890916908E09158
:104D10009D2321E02E0F20939D23E770F0E0E05CBF
:104D2000FC4D3081830F911D809368089093690832
:104D300020FD26C180913523813069F480932507B9
:104D400083E88093A2008091A30B8F7C8093A30BB8
:104D500087E88093A2008091F023811103C08091A5
:104D6000EF230FC081508093F023882319F08091A6
:104D7000EF2307C01092F0231092EF231092EA2342
:104D80009BC0882309F498C0A091CB25B091CC2575
:104D90008091CE3D8F3F59F01091CF3D5091D03D45
:104DA0000091D13D22EDE22E2DE3F22E0AC01091AA
:104DB000D13D5091D23D0091D33D94EDE92E9DE33C
:104DC000F92EFD01319681F090E040E020E030E0E6
:104DD000E901C353D24C2881420F9F5F292F30E055
:104DE0002E173F07A8F301C040E0E353F24C908137
:104DF000491360C05F3F09F05DC09091CD3D913097
:104E000089F51D31B0F41D3008F01EC1E12FF0E02E
:104E1000E458FC4D9081091317C1193009F00FC1F6
:104E200080916008909161088093B0239093B123A2
:104E300006C1602F812F0E94D9049091B22394FD66
:104E400039C0811103C08091CE3D05C041E061E0D1
:104E5000812FEED92FC090E0883F91055CF589E065
:104E6000F1DA28C0CD010497202F2F70622F70E057
:104E70002AD41D3130F49B01A701602F812F0EDE53
:104E800006C09B01A701602F812F0E94F204909120
:104E9000B22394FD0FC0882329F041E062E0812F06
:104EA000C7D908C08091CE3D90E0883F910514F4A9
:104EB0008AE0C8DA1092EF2380913523813009F01F
:104EC0005CC08091080786FF46C080919A2390912C
:104ED0009B230196883B2BE0920729F080939A232D
:104EE00090939B233CC010929A2310929B23809115
:104EF000B223982F93709130E9F486FD03C090E4BB
:104F000090930606982F907F9093B22383FF0BC057
:104F10001092E72381E08093E8231092E623892F03
:104F2000877F8093B2231092E9230E9429039091F6
:104F3000352301C091E01092ED231092EE231092E0
:104F4000EB231092EC238091A30B8C7F8093A30B17
:104F5000913029F012C010929A2310929B2383E87B
:104F60008093A2008091A30B80638093A30B87E8BA
:104F70008093A20081E0809326070E945C0302C018
:104F80000E94A60480919C23882339F0815080934D
:104F90009C23811102C00E94521F8091E823882324
:104FA000E1F080919D2383708230B9F48091E623F3
:104FB0008D3060F4893009F04CC020916008309148
:104FC00061082093B0233093B12343C08F5F809357
:104FD000E6238C3111F41092E8238091E923882391
:104FE00009F180919D238370E9F48091E723E82FF4
:104FF000F0E0E852FD4D6081805E0E94D904882374
:1050000031F08091E72341E061E0805E11D9809129
:10501000E7238F5F8093E72390919E23891302C03B
:105020001092E9230E94580380914C0884FF05C028
:1050300080919C23811101C010DC189510C08091D3
:10504000B22384FF03CF36CF9091B22394FF03CFD6
:1050500031CF41E061E0ECD88091E623B7CFFF92F9
:105060000F931F93CF93DF931F921F92CDB7DEB79D
:1050700089839A83F62E142F20E040E060E080E2DE
:1050800097E00E946D1F20E040E066E080E097E03E
:105090000E94581F01E020E440E063E080E097E0D8
:1050A0000E94851F81E08093260783E08093A50BF3
:1050B00089818093A60B8F2D90E18902B001112484
:1050C0008A818F70862B8093A70B112329F0809102
:1050D000A40B84608093A40B88E08093A50620E055
:1050E00040E063E080EA96E00E946D1F20E040E02F
:1050F00062E080EA96E00E94581F8091080786FFD0
:1051000005C08091A30B8C7F8093A30B0F900F9011
:10511000DF91CF911F910F91FF900895E0EAFBE09E
:1051200084818861848380EE81838381806383832B
:1051300008951F920F920FB60F92112408B60F9286
:1051400018BE09B60F9219BE0BB60F921BBE2F9355
:105150003F934F935F936F937F938F939F93AF93FF
:10516000BF93EF93FF930E94D5042091ED233091DC
:10517000EE23C90101968093ED239093EE23F9016C
:10518000E353FA4D20812093A00B811528E192076B
:1051900029F12091EB233091EC232817390729F4CA
:1051A0008091A30B8C7F8093A30B0E94D604FF9168
:1051B000EF91BF91AF919F918F917F916F915F918F
:1051C0004F913F912F910F900BBE0F9009BE0F9002
:1051D00008BE0F900FBE0F901F9018951092ED23F0
:1051E0001092EE2380E090E0D4CF1F920F920FB682
:1051F0000F92112408B60F9218BE09B60F9219BE6D
:105200000BB60F921BBE2F933F934F935F936F93F9
:105210007F938F939F93AF93BF93EF93FF930E94DE
:10522000D7048091080786FD29C02091ED23309195
:10523000EE238091EB239091EC232817390729F076
:105240008091A30B83608093A30B0E94D804FF91ED
:10525000EF91BF91AF919F918F917F916F915F91EE
:105260004F913F912F910F900BBE0F9009BE0F9061
:1052700008BE0F900FBE0F901F9018958091A30B42
:105280008C7F8093A30BE1CFBF92CF92DF92EF92FE
:10529000FF920F931F93CF93DF936C01B62E8091F3
:1052A000080786FD05C08091A30B83608093A30B44
:1052B0000091EB231091EC23C0E0D8E1C01BD10B8F
:1052C000EB2CF12CCE15DF0558F1A701B601C80172
:1052D00083539A4D53D28091ED239091EE23E00EAB
:1052E000F11EE092EB23F092EC23E11428E1F206A8
:1052F00009F446C008171907A8F5E816F90690F151
:105300008FEFE81AF80AE092ED23F092EE23E11411
:1053100028E1F20639F51092ED231092EE2322C017
:10532000AE01B601C80183539A4D28D2BC1AEB2CAA
:10533000F12CBE016C0D7D1DA7018DEC95E21ED2F6
:105340008091ED239091EE23E092EB23F092EC23F9
:105350000817190788F42FEFE21AF20AE092ED23FA
:10536000F092EE23DF91CF911F910F91FF90EF907C
:10537000DF90CF90BF900895E816F90660F7F2CF5E
:105380001092EB231092EC23892B61F781E090E0DF
:105390008093ED239093EE23E5CF1F920F920FB6EB
:1053A0000F92112408B60F9218BE09B60F9219BEBB
:1053B0000BB60F921BBE2F933F934F935F936F9348
:1053C0007F938F939F93AF93BF93EF93FF930E942D
:1053D000D3049091A00BE091EA2381E08E0F80939B
:1053E000EA23F0E0E353F24C9083813019F18430EA
:1053F00049F190E02091CB253091CC25821793077D
:1054000079F10E94D404FF91EF91BF91AF919F91E8
:105410008F917F916F915F914F913F912F910F905D
:105420000BBE0F9009BE0F9008BE0F900FBE0F90DD
:105430001F9018958091CD3D81508230D0F110920F
:10544000EA23DFCF8091CE3D8F3F01F190E08E3F88
:105450009105A9F302968093CB259093CC25D1CFCB
:1054600020913523213061F12091CE3D2F3F29F14C
:1054700022E030E0821B930B8093CB259093CC25C8
:105480001092EA2381E08093EF23BBCF8091CE3D41
:105490009091CF3D04968F3F910509F080F6809161
:1054A000CF3D9091D03D04968093CB259093CC2511
:1054B000A8CF82E38093F023A4CF24E030E0DACFBA
:1054C0002093250783E88093A2008091A30B8F7C13
:1054D0008093A30B87E88093A2008091CB259091C5
:1054E000CC25C2CFCF93DF931F921F92CDB7DEB7EB
:1054F00023E130E029833A838093F3239093F423CC
:1055000083E08093B50889818093B6088A818F7083
:105510008093B70820E048E166E080E496E00E94CE
:10552000581F80E18093B408E3EBF8E0808180634A
:1055300080830F900F90DF91CF9108951F920F926B
:105540000FB60F92112408B60F9218BE09B60F922B
:1055500019BE0BB60F921BBE2F938F939F93AF93E1
:10556000BF93EF93FF938091B0088A3AD1F18F3ABD
:1055700009F44CC09091F223923009F44BC008F426
:1055800072C0943009F452C008F44AC0953061F5F5
:105590008093F8231092F2238091F1238A3008F44B
:1055A0004BC082EF99E7809360089093610881E097
:1055B0009AE7809368089093690826E02093362341
:1055C000E091F323F091F4238091F5239091F62359
:1055D000A091F723B091F82380839183A283B383B2
:1055E00003C081E08093F223FF91EF91BF91AF91CF
:1055F0009F918F912F910F900BBE0F9009BE0F902E
:1056000008BE0F900FBE0F901F90189582E08093F8
:10561000F223EACF8093F52383E08093F223E4CF53
:105620008093F62384E08093F223DECF8093F723E8
:1056300085E08093F223D8CF1092F1232091362376
:1056400089EF99E7821B9109809360089093610824
:1056500081E09AE78093680890936908222309F40F
:10566000AFCF2150ABCF992319F0913009F0BCCFC7
:105670001092F223B9CF03D008F481E00895990F76
:105680000008550FAA0BE0E8FEEF16161706E8070C
:10569000F907C0F012161306E407F50798F0621B2D
:1056A000730B840B950B39F40A2661F0232B242B02
:1056B000252B21F408950A2609F4A140A6958FEF21
:1056C000811D811D0895AA1BBB1B51E107C0AA1FA4
:1056D000BB1FA617B70710F0A61BB70B881F991F93
:1056E0005A95A9F780959095BC01CD010895052E96
:1056F00097FB16F400940FD057FD05D01DD007FC82
:1057000002D046F408C050954095309521953F4F02
:105710004F4F5F4F089590958095709561957F4F9D
:105720008F4F9F4F0895EE0FFF1F881F8BBF07906D
:10573000F691E02D1BBE1994A1E21A2EAA1BBB1BE9
:10574000FD010DC0AA1FBB1FEE1FFF1FA217B3074D
:10575000E407F50720F0A21BB30BE40BF50B661F63
:10576000771F881F991F1A9469F760957095809527
:1057700090959B01AC01BD01CF010895FB01DC01B7
:1057800002C001900D9241505040D8F70895F8940E
:02579000FFCF49
:105792007D0D36053312B60FBA136D102206280698
:1057A2002E0634063A0665066B067F0688069506BF
:1057B200A206AF06BC06C906D606E306F006FD063B
:1057C2000A07170724073107B609140A720AD00A12
:1057D2003E078307C8070D082E0B430C5A0FBA0E5B
:1057E2000A0F52088808BE08CA08D608B716DC088D
:1057F200F70B900CB60C7F0D810D830D850D870D77
:10580200890D8B0D8D0D8F0D910DFF081009120959
:10581200930D950D970D990D230941095F097D0996
:105822009B0D9D0D9F0DA10D9B09A30DA50D1F0E97
:105832003E0E7C0EA70DA90DAB0D5D0E000E9B0E4C
:105842007B0DAD09B0091205B40DFE0DFF0DF40D6F
:105852003C05F50DF60DF70DF80DF90D4006D40DCA
:10586200D50DD60DD70DD80DD90DDA0DDB0DDC0D0A
:10587200DD0DDE0DDF0DE00DE10DE20DE30DBC0DE2
:10588200BD0DBE0DBF0DC00DC10DC20DC30D290D45
:10589200C40DC50DC60DC70DB70DB80DB90DBA0DA6
:1058A200BB0D570DB50D690DB60DF508B10DB20D55
:1058B200FC0DFD0DFA0DFB0DEE0DEF0DEC0DED0DDA
:1058C200F00DF10DF20DF30DE60DE70DE40DE50D12
:1058D200E80DE90DEA0DEB0DCA0DCB0DC80DC90D92
:1058E200D00DD10DCC0DCD0DD20DD30DCE0DCF0DD2
:1058F200AD0DAE0DAF0DB00DB30DAF0926242724AB
:1059020028242A242C242E24302431243224332403
:105912003424352436243A243C243E244024422490
:105922004424462448244A244C244E2450245224FD
:105932005424562458245A245C245E24602461246E
:10594200622463246424652466246C246F247224F4
:1059520073247424752476247724782479247A2471
:105962007B247C247D247E247F2480248124822421
:105972008324842485248624882489248B248C24CB
:105982008D248E248F249124932495249724982463
:1059920099249A249B249C249D249E249F24A02401
:1059A200A124A224A324A424A524A624A724A824B1
:1059B200A924010001000100010001000100010011
:1059C20001000100010001000100020001000100CC
:1059D20001000100010001000100010001000100BD
:1059E20001000100010001000100010001000100AD
:1059F2000100010001000100010001000100060098
:105A02000300030001000100010001000100010088
:105A1200010001000100010001000100010001007C
:105A2200010001000100010001000100010001006C
:105A3200010001000100010001000100010001005C
:105A4200010001000100010001000100010001004C
:105A5200010001000100010001000100010001003C
:105A62000100010001000100010102020202010124
:105A72000101010182020202020202020202020288
:105A820002020202020202020101010101010101FC
:105A920001010101010101010101010101010101F4
:105AA20001010101010201020101010102020202DE
:105AB20001010101010101010101010101010101D4
:105AC200010101B40001074265686176696F7200E5
:105AD2000F10100F100F1010A323A523A623A72326
