:1000000019C100003DC100003BC1000039C1000022
:1000100037C1000035C1000033C1000031C100000C
:100020002FC100002DC100002BC1000029C100001C
:1000300027C1000025C100000C949D1A21C10000B9
:100040001FC100001DC100001BC1000019C100003C
:100050000C94D02315C100000C94132611C100008C
:100060000FC100000DC100000BC1000009C100005C
:100070000C94302A05C1000003C1000001C100003A
:10008000FFC00000FDC00000FBC00000F9C0000080
:10009000F7C00000F5C00000F3C00000F1C0000090
:1000A000EFC00000EDC00000EBC000000C94A519EB
:1000B000E7C00000E5C00000E3C000000C943B1A5C
:1000C000DFC000000C946A1ADBC00000D9C0000039
:1000D000D7C00000D5C00000D3C00000D1C00000D0
:1000E000CFC00000CDC00000CBC00000C9C00000E0
:1000F000C7C00000C5C00000C3C00000C1C00000F0
:100100000C947E19BDC00000BBC00000B9C0000047
:10011000B7C00000B5C00000B3C00000B1C000000F
:10012000AFC00000ADC00000ABC00000A9C000001F
:10013000A7C000000C947D1AA3C00000A1C000005D
:100140009FC000009DC000009BC0000099C000003F
:1001500097C0000095C0000093C0000091C000004F
:100160008FC000008DC000008BC0000089C000005F
:1001700087C0000085C0000083C0000081C000006F
:100180007FC000007DC000000C94872879C000006B
:1001900077C0000075C0000073C0000071C000008F
:1001A0000C94CF196DC000006BC0000069C0000046
:1001B0000C94F91965C000000C94281A61C0000065
:1001C0005FC000005DC000005BC0000059C00000BF
:1001D00057C0000055C0000053C000000C945F29B8
:1001E0000C942B284DC000004BC0000049C00000FB
:1001F00047C0000045C0000043C00000F617EE17DE
:10020000E517DC17D317CA17FF173E193A19361925
:1002100032192E192A1942195A19561952194E19FA
:100220004A1946195E19761972196E196A196619F2
:1002300062197A1911241FBECFEFCDBFDFE3DEBFF5
:1002400000E00CBF18BE19BE1ABE1BBE13E2A0E030
:10025000B0E2E0EBF6E500E00BBF02C007900D92C4
:10026000AA38B107D9F71BBE2EE3AAE8B3E201C052
:100270001D92AA3CB207E1F70E94BD1A0C94562BBE
:10028000BFCE8F92AF92BF92CF92DF92EF920F9339
:1002900087E393E29F938F938BE5882E94E8A92EB2
:1002A000B12C23E2C22E24E2D22EE12C05E022E082
:1002B00042E061E080EC94E00E9468220F900F9091
:1002C0000F91EF90DF90CF90BF90AF908F900895F7
:1002D0009F92AF92BF92CF92DF92EF92FF920F93D5
:1002E0001F93CF93DF9300D0CDB7DEB719821A8268
:1002F0001B8280E09BE00E94611F00EA16E0BB24A5
:10030000B394F801B68280E09AE00E94611F30E861
:10031000E32E36E0F32EF701B68280E099E00E94EA
:10032000611F40E6C42E46E0D42EF601B68280E07E
:1003300098E00E94611FE0E4F6E0B682E0E2F6E0B9
:1003400050E4952E958280E2858362EAA62EB12C38
:1003500081E8F5018083BE016F5F7F4FCB010E9472
:10036000CF1A87E8F5018083F6019682F70196821D
:10037000F801968270E8B72EF601B68261E08091AE
:10038000A1240E94BC17F701B68261E08091A224EB
:100390000E94BC17F801B68261E08091A3240E94FC
:1003A000BC172396CDBFDEBFDF91CF911F910F9178
:1003B000FF90EF90DF90CF90BF90AF909F90089507
:1003C0000E9453180E94C61AE0E0F3E093E8908779
:1003D00085E88187E0E2F3E09087818780E481838C
:1003E00012828DE0808380E190E00C944C2010928A
:1003F000252410922624109227241092282410924B
:10040000292410922A2410922B2410922C2410922A
:100410002D2410922E2410922F241092302410920A
:100420003124109235241092362488E390E0809392
:1004300037249093382484EF91E08093392490936B
:100440003A2480933B2490933C2480933D249093C2
:100450003E242FE030E020933F243093402420932B
:1004600041243093422420934324309344248093A6
:100470004524909346248093472490934824809366
:10048000492490934A2480934B2490934C248AEFE0
:1004900090E080934D2490934E2480934F2490932A
:1004A000502480935124909352248093532490930A
:1004B000542488EE93E0809355249093562480ED45
:1004C00097E0809357249093582488EB9BE0809387
:1004D000592490935A2480EA9FE080935B24909360
:1004E0005C2482E380935D2480935E2480935F2468
:1004F0008093602410926124109262248FEF809385
:100500006324109264241092652410926624109241
:100510006724809368248093692410926A2410923F
:100520006B2410926C2410926D2480936E248AE0C8
:1005300080936F24809370248EE180937124809344
:1005400072248FE180937324109274241092752486
:100550001092762410927724109278248EE190E005
:10056000809383249093842480938624909387247B
:1005700020E23EE420938C2430938D248CED95E092
:1005800080938E2490938F242093902430939124F1
:1005900080939224909393240895CF93DF9300D077
:1005A000CDB7DEB7109214241092152410921624A1
:1005B00010921724109218241092192410921A24C1
:1005C00010921B2410921C2410921D2410921E24A1
:1005D00010921F2410922024109221241092222481
:1005E00080912B2490912C2489839A83CE010196AB
:1005F0000E94FC1180916F248B83CE01039668D5F5
:10060000809170248B83CE01039699D580915524D7
:100610009091562489839A83CE01019616D78091B2
:1006200057249091582489839A83CE0101966BD7E1
:100630008091592490915A2489839A83CE010196FE
:10064000C0D780915B2490915C2489839A83CE01EA
:1006500001960E943F0B809161248B83CE0103960B
:100660000E949D0B809178248B83CE0103960E947B
:10067000250D80919B248B83CE0103960E947A0ED8
:1006800080919C248B83CE0103960E949E0E8091C4
:100690009D248B83CE0103960E94560E8091A12447
:1006A0008B83CE0103960E940E0E8091A2248B8331
:1006B000CE0103960E94EA0D8091A3248B83CE0184
:1006C00003960E94320E2396CDBFDEBFDF91CF91FD
:1006D00008950895089508950895089580918A23AE
:1006E00091E0980F90938A2380FF089580E090E036
:1006F0000E94672097FD19C080933324909334247F
:100700008091782482FF09C08091600990916109ED
:10071000905880933524909336248091732482FFDF
:10072000E4CF61E08CE20C94D72410923324109231
:100730003424E6CF089510928A230895CF93DF934F
:10074000C0918E23D0918D238091F6239091F72331
:10075000009741F001978093F6239093F723892B1C
:1007600009F40FC18091F8239091F923009741F08B
:1007700001978093F8239093F923892B09F4FDC006
:100780008091FA239091FB23009741F00197809389
:10079000FA239093FB23892B09F4EBC08091FC236F
:1007A0009091FD23009741F001978093FC23909353
:1007B000FD23892B09F4F1C08091FE239091FF2342
:1007C000009741F001978093FE239093FF23892B9C
:1007D00009F4ECC08091002490910124009741F02D
:1007E00001978093002490930124892B09F4E7C09A
:1007F0008091022490910324009741F00197809307
:10080000022490930324892B09F4AFC0809104241F
:1008100090910524009741F00197809304249093D0
:100820000524892B09F49DC080910624909107240A
:10083000009741F001978093062490930724892B19
:1008400009F48BC080918E232091082430910924D3
:100850002115310549F021503109209308243093A6
:100860000924232B09F471C060918D23C81709F462
:1008700071C00E94B71580910A2490910B240097B3
:1008800041F0019780930A2490930B24892B09F45B
:100890004DC080910C2490910D24009739F0019760
:1008A00080930C2490930D24892B91F180910E2438
:1008B00090910F24009739F0019780930E24909324
:1008C0000F24892BB9F08091102490911124009766
:1008D00071F001978093102490931124892B39F49F
:1008E00081E0809346068091172481114EC0DF91EC
:1008F000CF91089581E08093660680911624882325
:1009000011F31092162480E099E00E94611FDBCF62
:1009100081E08093860680911524882339F2109215
:10092000152480E09AE00E94611FC0CF81E080938F
:10093000A60680911424882309F4ABCF10921424C6
:1009400080E09BE00E94611FA4CF10928D2360E0A5
:10095000C8138FCFD6138DCF8ECF10928E2380E009
:1009600073CF80E2809325065FCF80E480932506D5
:100970004DCF80E48093A60611CF80E48093860655
:10098000FFCE80E480936606EDCE1092172480E0BF
:1009900098E0DF91CF910C94611F80E88093660608
:1009A00061E08091A1240E94BC1706CF80E880936B
:1009B000860661E08091A2240E94BC170BCF80E8DC
:1009C0008093A60661E08091A3240E94BC1710CFFB
:1009D000089508950895089508950895089590EE4E
:1009E000980F9B3540F490E08097FC01E852FD4D54
:1009F0002081261711F080E00895FC01EE0FFF1F03
:100A0000EA54FF4D0190F081E02D199581E00895A1
:100A100090EE980F9B3548F4E82FF0E0B097DF0197
:100A2000A852BD4D8C91861711F080E00895EE0F0D
:100A3000FF1FDF01AE5DBD4D8D919C918217930725
:100A4000A1F7E050F04E0190F081E02DCA01199419
:100A50008091680682958170809323249091880606
:100A600094FF0DC092E0892B809323249091A806D7
:100A700094FD0DC090E0892B80932324089590E08D
:100A8000892B809323249091A80694FFF3CF94E0C0
:100A9000892B80932324089580E008950895FC0114
:100AA00080818093242481E0089508950895089515
:100AB0002091680626FB882780F990E080932B24FC
:100AC00090932C242091880626FFB0C022E030E0CD
:100AD000822B932B80932B2490932C242091A80677
:100AE00026FFBCC024E030E0282B392B20932B2498
:100AF00030932C2480916806992787FD909588274C
:100B0000990F881F9927880F991F880F991F880FA1
:100B1000991F822B932B80932B2490932C2420912C
:100B20008806332727FD30952227330F221F3327CE
:100B300022953295307F3227207F3227282B392B80
:100B400020932B2430932C248091A806992787FD8D
:100B500090958827990F881F9927880F991F82954C
:100B60009295907F9827807F9827822B932B809354
:100B70002B2490932C242091280626FF6CC020E083
:100B800030E0822B932B80932B2490932C24209164
:100B9000280625FF5DC020E030E0822B932B2091BA
:100BA0008E23222309F451C020E031E0822B932BC5
:100BB00020918D23222309F445C020E032E0822BCE
:100BC000932B80932B2490932C242091A80620FF14
:100BD00036C020E034E0822B932B80932B2490931B
:100BE0002C242091880620FF27C020E038E0822BAB
:100BF000932B80932B2490932C242091680620FF24
:100C000018C020E030E1822B932B80932B2490930B
:100C10002C242091480620FD24C020E030E0822BC7
:100C2000932B80932B2490932C24089520E030E084
:100C30004FCF20E030E0E7CF20E030E0D8CF20E019
:100C400030E0C9CF20E030E0BACF20E030E0AECFD6
:100C500020E830E0A2CF20E430E093CF20E030E085
:100C600043CF20E030E2822B932B80932B24909370
:100C70002C2408950895FC01808180932D2481E027
:100C800008950895FC01808180932E2481E00895C9
:100C90000895FC01808180932F2481E008950895B8
:100CA000FC0180818093302481E008950895FC0147
:100CB00080818093312481E008950895FC01808132
:100CC0008093322481E008950895FC0122813381CC
:100CD000209335243093362420912224222339F086
:100CE000828193819058809360099093610981E09B
:100CF00008950895FC018081918180933724909319
:100D0000382481E008950895FC0180819181009745
:100D100031F08093392490933A2481E0089580E063
:100D200008950895FC0180819181009731F08093AE
:100D30003B2490933C2481E0089580E00895089539
:100D4000FC0180819181009731F080933D24909344
:100D50003E2481E0089580E008950895FC0180819B
:100D60009181009731F080933F249093402481E05B
:100D7000089580E008950895FC0180819181009795
:100D800031F0809341249093422481E0089580E0E3
:100D900008950895FC0180819181009731F080933E
:100DA00043249093442481E0089580E008950895B9
:100DB000FC0180819181009731F0809345249093CC
:100DC000462481E0089580E008950895FC01808123
:100DD0009181009731F0809347249093482481E0DB
:100DE000089580E008950895FC0180819181009725
:100DF00031F08093492490934A2481E0089580E063
:100E000008950895FC0180819181009731F08093CD
:100E10004B2490934C2481E0089580E00895089538
:100E2000FC0180819181009731F080934D24909353
:100E30004E2481E0089580E008950895FC018081AA
:100E40009181009731F080934F249093502481E05A
:100E5000089580E008950895FC01808191810097B4
:100E600031F0809351249093522481E0089580E0E2
:100E700008950895FC0180819181009731F080935D
:100E800053249093542481E0089580E008950895B8
:100E90000895089508950895CF92DF92EF92FF92FA
:100EA000CF93FC01C0818FEF8C0F833698F56C2FA8
:100EB00070E080E090E00E94471D20E030E048ECC8
:100EC00052E40E94B11C6B017C016091AF247091CF
:100ED000B02480E090E00E94451D9B01AC01C70159
:100EE000B6010E94D31D20E030E040E05FE30E94A5
:100EF0004D1C0E94191D6093B7247093B82481E0A3
:100F00008093A724C0935D24CF91FF90EF90DF9052
:100F1000CF90089580E0CF91FF90EF90DF90CF9039
:100F200008950895CF92DF92EF92FF92CF93FC0144
:100F3000C0818FEF8C0F833698F56C2F70E080E0C6
:100F400090E00E94471D20E030E048EC52E40E940F
:100F5000B11C6B017C016091B1247091B22480E0DE
:100F600090E00E94451D9B01AC01C701B6010E94A3
:100F7000D31D20E030E040E05FE30E944D1C0E9462
:100F8000191D6093B9247093BA2481E08093A8243A
:100F9000C0935E24CF91FF90EF90DF90CF900895A3
:100FA00080E0CF91FF90EF90DF90CF90089508956B
:100FB000CF92DF92EF92FF92CF93FC01C0818FEF2F
:100FC0008C0F833698F56C2F70E080E090E00E94E3
:100FD000471D20E030E048EC52E40E94B11C6B0158
:100FE0007C016091B3247091B42480E090E00E9471
:100FF000451D9B01AC01C701B6010E94D31D20E035
:1010000030E040E05FE30E944D1C0E94191D609398
:10101000BB247093BC2481E08093A924C0935F24F7
:10102000CF91FF90EF90DF90CF90089580E0CF9127
:10103000FF90EF90DF90CF9008950895CF92DF92C8
:10104000EF92FF92CF93FC01C0818FEF8C0F83361C
:1010500098F56C2F70E080E090E00E94471D20E042
:1010600030E048EC52E40E94B11C6B017C016091BD
:10107000B5247091B62480E090E00E94451D9B014C
:10108000AC01C701B6010E94D31D20E030E040E072
:101090005FE30E944D1C0E94191D6093BD24709354
:1010A000BE2481E08093AA24C0936024CF91FF9056
:1010B000EF90DF90CF90089580E0CF91FF90EF9078
:1010C000DF90CF90089508950895089508950895A4
:1010D000CF93FC01C0818FEF8C0F843628F580916F
:1010E00071248C1708F16C2F70E080E090E00E9472
:1010F000451D20E030E048EC52E40E94B11C20E0A5
:1011000030E040E855E40E94D31D0E94191D61158E
:10111000F0E17F0760F460933A0370933B03C09360
:101120006F2481E0CF91089580E0CF9108958FEFF3
:101130009FE080933A0390933B03F1CF0895CF93C0
:10114000FC01C0818FEF8C0F843628F580917224CA
:101150008C1708F16C2F70E080E090E00E94451D34
:1011600020E030E048EC52E40E94B11C20E030E086
:1011700040E855E40E94D31D0E94191D6115F0E15D
:101180007F0760F46093380370933903C093702431
:1011900081E0CF91089580E0CF9108958FEF9FE097
:1011A0008093380390933903F1CF0895FC01808137
:1011B0009EEF980F933620F48093712481E0089578
:1011C00080E008950895FC0180819EEF980F93368A
:1011D00020F48093722481E0089580E008950895BA
:1011E000FC0180818093732481E008950895FC01BF
:1011F000808180FF04C09091182491110DC081FF5F
:1012000007C090911924992319F091E090938B23B2
:101210008093752481E0089591E090938C23EFCF23
:1012200008951092782480912224882319F084E074
:10123000809378240895089581E00895089581E0C9
:101240000895089581E00895089581E0089508952E
:1012500081E00895089581E00895089581E008955A
:10126000089581E00895089581E00895089580E04B
:1012700008950895FC01808191819C0122503109DB
:101280002735324030F4809383249093842481E086
:10129000089580E00895089580E008950895FC0180
:1012A000808191819C01225031092735324030F4F0
:1012B000809386249093872481E0089580E00895A8
:1012C000089581E00895089581E00895089581E0EA
:1012D0000895089581E008950895FC018081918129
:1012E0009C01225031092D3F3F4F98F420911E243C
:1012F000222349F09C0136952795215031092093EE
:1013000026093093270980938C2490938D2481E0C3
:10131000089580E008950895FC01808191819C01E9
:1013200026503109253F3F4F98F420911E24222357
:1013300049F09C01369527952150310920932809C1
:101340003093290980938E2490938F2481E008950F
:1013500080E008950895FC01808191819C012250D4
:1013600031092D3F3F4F98F420911F24222349F04B
:101370009C013695279521503109209326083093FA
:101380002708809390249093912481E0089580E031
:1013900008950895FC01808191819C0126503109B6
:1013A000253F3F4F98F420911F24222349F09C01B0
:1013B0003695279521503109209328083093290824
:1013C000809392249093932481E0089580E008957F
:1013D000089581E00895089581E00895089581E0D9
:1013E0000895089581E008950895FC01208122FF69
:1013F0000AC080912224882331F080E090E8809315
:101400006009909361092093982481E008950895DC
:1014100081E00895089581E008950895089508955C
:10142000089581E00895089581E00895089581E088
:101430000895089508950895089581E00895089500
:1014400081E00895089581E00895CF92DF92EF92B0
:10145000FF920F931F93CF93DF93FC01C081D18143
:10146000CE0101978031974250F080E0DF91CF911B
:101470001F910F91FF90EF90DF90CF900895BE01E4
:1014800080E090E00E94451D9B01AC016FEAE62ED2
:1014900064E2F62E0BEA14E260E078E488EE91E074
:1014A0000E94661F60915D2470E080E090E00E94E1
:1014B000471D20E030E048EC52E40E94B11C6B0173
:1014C0007C016091AF247091B02480E090E00E9494
:1014D000451D9B01AC01C701B6010E94D31D20E050
:1014E00030E040E05FE30E944D1C0E94191D6093B4
:1014F000B7247093B82481E08093A724C093552427
:10150000D0935624B3CFCF92DF92EF92FF920F93F6
:101510001F93CF93DF93FC01C081D181CE0101974E
:101520008031974250F080E0DF91CF911F910F9171
:10153000FF90EF90DF90CF900895BE0180E090E0A3
:101540000E94451D9B01AC0171EBE72E74E2F72E62
:101550000CEA14E260E078E488EE91E00E94661FF5
:1015600060915E2470E080E090E00E94471D20E0E2
:1015700030E048EC52E40E94B11C6B017C016091A8
:10158000B1247091B22480E090E00E94451D9B013F
:10159000AC01C701B6010E94D31D20E030E040E05D
:1015A0005FE30E944D1C0E94191D6093B924709343
:1015B000BA2481E08093A824C0935724D093582460
:1015C000B3CFCF92DF92EF92FF920F931F93CF93FF
:1015D000DF93FC01C081D181CE0101978031974218
:1015E00050F080E0DF91CF911F910F91FF90EF902D
:1015F000DF90CF900895BE0180E090E00E94451DED
:101600009B01AC01E3EBEE2EE4E2FE2E0DEA14E2C8
:1016100060E078E488EE91E00E94661F60915F24AC
:1016200070E080E090E00E94471D20E030E048EC50
:1016300052E40E94B11C6B017C016091B324709153
:10164000B42480E090E00E94451D9B01AC01C701DD
:10165000B6010E94D31D20E030E040E05FE30E942D
:101660004D1C0E94191D6093BB247093BC2481E023
:101670008093A924C0935924D0935A24B3CFCF92F6
:10168000DF92EF92FF920F931F93CF93DF93FC01B2
:10169000C081D181CE0101978031974250F080E026
:1016A000DF91CF911F910F91FF90EF90DF90CF903E
:1016B0000895BE0180E090E00E94451D9B01AC01B1
:1016C000F5EBEF2EF4E2FF2E0EEA14E260E078E490
:1016D00088EE91E00E94661F6091602470E080E0D7
:1016E00090E00E94471D20E030E048EC52E40E9468
:1016F000B11C6B017C016091B5247091B62480E02F
:1017000090E00E94451D9B01AC01C701B6010E94FB
:10171000D31D20E030E040E05FE30E944D1C0E94BA
:10172000191D6093BD247093BE2481E08093AA2488
:10173000C0935B24D0935C24B3CFEF920F93CF93ED
:10174000FC01C081C0FF05C080911424882309F4E6
:1017500048C0C1FF05C080911524882309F468C0E2
:10176000C2FF05C080911624882309F488C0C3FFF6
:1017700004C080911724882339F0C093612481E04C
:10178000CF910F91EF9008952091BD243091BE2408
:101790004091B5245091B624E12C01E06091AE2433
:1017A00080E098E00E944D1F1092AA2481E080936F
:1017B000172480934506809137249091382495FF13
:1017C000DCCF80915324909154240196809310246F
:1017D00090931124C093612481E0CF910F91EF90F9
:1017E00008952091B7243091B8244091AF245091AE
:1017F000B024E12C01E06091AB2480E09BE00E94EA
:101800004D1F1092A72481E0809314248093A50695
:10181000809137249091382492FF9BCF80914D2462
:1018200090914E24019680930A2490930B2491CF9B
:101830002091B9243091BA244091B1245091B2241E
:10184000E12C01E06091AC2480E09AE00E944D1F01
:101850001092A82481E080931524809385068091BE
:1018600037249091382493FF7BCF80914F2490911F
:101870005024019680930C2490930D2471CF2091D5
:10188000BB243091BC244091B3245091B424E12C6A
:1018900001E06091AD2480E099E00E944D1F10921C
:1018A000A92481E0809316248093650680913724D3
:1018B0009091382494FF5BCF8091512490915224D1
:1018C000019680930E2490930F2451CFEF920F93A3
:1018D000CF93FC01C081C2FF04C080911E248823E5
:1018E00051F1C3FF04C080911F24882339F0C093B5
:1018F000762481E0CF910F91EF90089581E080935D
:101900001F2420919224309193243695279540915D
:1019100090245091912456954795E12C00E065E084
:1019200080E098E00E944D1FC093762481E0CF9123
:101930000F91EF90089581E080931E2420918E24D2
:1019400030918F243695279540918C2450918D2489
:1019500056954795E12C00E065E080E099E00E9413
:101960004D1FBFCFCF93FC01C081C0FF04C0809149
:101970001424811130C0C1FF04C08091152481114D
:1019800034C0C2FF04C08091162481111AC0C3FF65
:1019900004C08091172481110AC08C2F80958F700C
:1019A00080936124C093622481E0CF91089581E007
:1019B0008093460680E098E00E94611F10921724F1
:1019C000ECCF81E08093660680E099E00E94611F81
:1019D00010921624DCCF81E08093A60680E09BE085
:1019E0000E94611F10921424C6CF81E08093860666
:1019F00080E09AE00E94611F10921524C2CFCF931D
:101A0000FC01C081C2FF04C080911E24811116C058
:101A1000C3FF04C080911F24811105C0C0937724A7
:101A200081E0CF91089510921F2480E098E00E94F9
:101A3000611FC093772481E0CF91089510921E24F6
:101A400080E099E00E94611FE3CF0F93CF93DF9373
:101A5000FC01C08180912224C2FF09C0882351F17A
:101A6000C093782481E0DF91CF910F91089588236E
:101A7000B9F310922224109240098CE08093490916
:101A800020E048E164E080EA96E00E94EA1E00E07F
:101A900020E140E061E080EA96E00E94171F10928A
:101AA000352410923624C093782481E0DF91CF91C1
:101AB0000F910895D1E0D09322248091A9068C7FC4
:101AC0008093A9068091A9068C7F8093A90623E0C4
:101AD00040E064E080EA96E00E94EA1E23E040E0F5
:101AE00065E080EA96E00E94EA1E8CE78093800120
:101AF00089E080938801109240098CE08093490925
:101B000088E6809343098FEF9FEF80936609909357
:101B1000670980E090E88093600990936109D09311
:101B20004009C093782481E0DF91CF910F9108950F
:101B30001092612480911424882301F181E0809324
:101B4000612489E09DE025E06BE05FE047E073E021
:101B500030911524332329F070936124862F952F1B
:101B6000242F30911624332319F020936124892FD8
:101B700090911724911180936124089588E09CE04E
:101B800024E06AE05EE046E072E0E2CF1092742466
:101B900080911824882351F081E08093742493E08D
:101BA00080911924811190937424089592E0F8CFC4
:101BB0001092762480911E24882351F084E0809333
:101BC00076249CE080911F248111909376240895BF
:101BD00098E0F8CFCF93FC01C081C0FD05C0C09351
:101BE000A22481E0CF91089521E040E064E080E606
:101BF00096E00E94FF1E21E040E064E080E896E06D
:101C00000E94FF1E21E040E064E080EA96E00E942E
:101C1000FF1EC093A22481E0CF910895CF93FC01D1
:101C2000C081C0FD05C0C093A12481E0CF9108957B
:101C300021E040E064E080E696E00E94FF1E21E0A3
:101C400040E064E080E896E00E94FF1E21E040E072
:101C500064E080EA96E00E94FF1EC093A12481E028
:101C6000CF910895CF93FC01C081C0FD05C0C09302
:101C7000A32481E0CF91089521E040E064E080E674
:101C800096E00E94FF1E21E040E064E080E896E0DC
:101C90000E94FF1E21E040E064E080EA96E00E949E
:101CA000FF1EC093A32481E0CF910895CF93FC0140
:101CB000C081C0FD05C0C0939D2481E0CF910895EF
:101CC00021E040E064E080E696E00E94FF1E21E013
:101CD00040E064E080E896E00E94FF1E21E040E0E2
:101CE00064E080EA96E00E94FF1EC0939D2481E09C
:101CF000CF910895CF93FC01C081C0FD05C0C09372
:101D00009B2481E0CF91089521E040E064E080E6EB
:101D100096E00E94FF1E21E040E064E080E896E04B
:101D20000E94FF1E21E040E064E080EA96E00E940D
:101D3000FF1EC0939B2481E0CF910895CF93FC01B7
:101D4000C081C0FD05C0C0939C2481E0CF9108955F
:101D500021E040E064E080E696E00E94FF1E21E082
:101D600040E064E080E896E00E94FF1E21E040E051
:101D700064E080EA96E00E94FF1EC0939C2481E00C
:101D8000CF9108951F93CF93DF9300D000D0CDB7AC
:101D9000DEB7FC0181818093632480818093642479
:101DA000828180936524218120936924908190937E
:101DB0006A24828180936B2430918D2340918E23FD
:101DC0001C821D821E8219821A821B82413031F1CF
:101DD000313049F480916C24898380916D248A8309
:101DE00080916E248B8383E88093A2001091A30BD3
:101DF0001092A30BBE016F5F7F4FCE0104960E942D
:101E0000CF1A1093A30B87E88093A20081E0269657
:101E1000CDBFDEBFDF91CF911F9108952C839D83AD
:101E20008E83D6CF1F93CF93DF9300D000D0CDB752
:101E3000DEB7FC01818180936624808180936724D2
:101E4000828180936824218120936C2490819093D7
:101E50006D24828180936E2430918D2340918E2356
:101E60001C821D821E8219821A821B82413001F15E
:101E7000313019F429839A838B8383E88093A200FD
:101E80001091A30B1092A30BBE016F5F7F4FCE0189
:101E900004960E94CF1A1093A30B87E88093A200A8
:101EA00081E02696CDBFDEBFDF91CF911F910895CF
:101EB000409169244C8340916A244D8340916B2466
:101EC0004E83D6CF1F93CF93DF9300D000D0CDB7F2
:101ED000DEB7FC0181818093632480818093642438
:101EE000828180936524848180936624838180939A
:101EF00067248581809368245181509369244081AF
:101F000040936A24328130936B24248120936C2483
:101F1000938190936D24858180936E2460918D23AD
:101F200070918E231C821D821E8219821A821B824E
:101F3000713001F1613019F429839A838B8383E82E
:101F40008093A2001091A30B1092A30BBE016F5FB0
:101F50007F4FCE0104960E94CF1A1093A30B87E8FF
:101F60008093A20081E02696CDBFDEBFDF91CF91A6
:101F70001F9108955C834D833E83DCCFFF920F93C6
:101F80001F93CF93DF9300D000D0CDB7DEB7FC0115
:101F90000081118100FF03C080E48093660601FF89
:101FA00003C080E48093860602FF03C080E4809330
:101FB000A60603FD85C004FD7BC005FD71C006FFBC
:101FC00003C080E48093250607FF03C080E280936E
:101FD000250610FD10928E2311FD10928D23C8014D
:101FE00088279370892B19F180918D2390918E23EE
:101FF0001C821D821E8219821A821B82913009F472
:1020000067C0813009F442C083E88093A200F09059
:10201000A30B1092A30BBE016F5F7F4FCE010496FE
:102020000E94CF1AF092A30B87E88093A20012FFC0
:1020300003C081E08093A60613FF03C081E0809374
:10204000860614FF03C081E08093660615FF03C077
:1020500081E080934606C8018095909520912B24BD
:1020600030912C248223932380932B2490932C242F
:10207000009327241093282481E02696CDBFDEBF4D
:10208000DF91CF911F910F91FF90089580916C2463
:10209000898380916D248A8380916E248B83B4CF51
:1020A00080E88093A60661E08091A32465D787CF5E
:1020B00080E88093860661E08091A2245DD77DCF81
:1020C00080E88093660661E08091A12455D773CFA4
:1020D000909169249C8390916A249D8390916B24B4
:1020E0009E83813009F090CFD1CFFF920F931F9341
:1020F000CF93DF9300D000D0CDB7DEB7FC010081D5
:10210000118100FF07C080E4809365068091372429
:1021100080FD51C101FF07C080E480938506809156
:10212000372481FD3EC102FF07C080E48093A506ED
:102130008091372482FDE9C003FDF2C004FD06C191
:1021400005FD1AC106FF07C080E480932606809132
:10215000372486FDD0C007FF07C080E280932606A3
:102160008091372487FDBDC010FF09C081E08093B6
:102170008E23809137249091382490FDA8C011FFC0
:1021800009C081E080938D23809137249091382479
:1021900091FD93C0C80188279370892B19F1809114
:1021A0008D2390918E231C821D821E8219821A8299
:1021B0001B82913009F413C1813009F406C183E810
:1021C0008093A200F090A30B1092A30BBE016F5F4F
:1021D0007F4FCE0104960E94CF1AF092A30B87E89E
:1021E0008093A20012FF09C081E08093A506809130
:1021F00037249091382492FD56C013FF09C081E026
:1022000080938506809137249091382493FD41C0B6
:1022100014FF09C081E08093650680913724909176
:10222000382494FD2CC015FF12C081E08093450630
:10223000809137249091382495FF09C080915324D0
:1022400090915424019680931024909311248091AE
:102250002B2490912C24802B912B80932B249093D2
:102260002C24009325241093262481E02696CDBFAC
:10227000DEBFDF91CF911F910F91FF900895809164
:10228000512490915224019680930E2490930F2410
:10229000CACF80914F2490915024019680930C24B2
:1022A00090930D24B5CF80914D2490914E240196AA
:1022B00080930A2490930B24A0CF80914B2490917B
:1022C0004C240196809308249093092463CF809135
:1022D000492490914A2401968093062490930724E0
:1022E0004ECF8091472490914824019680930424F6
:1022F0009093052439CF80914524909146240196EE
:10230000809302249093032426CF80913D249091C2
:102310003E2401968093FA239093FB2303FF0ECF74
:1023200080E88093650660E08091A12425D68091A5
:10233000372483FF03CF80913F249091402401965E
:102340008093FC239093FD2304FFFACE80E88093D2
:10235000850660E08091A2240FD68091372484FF07
:10236000EFCE809141249091422401968093FE23E8
:102370009093FF2305FFE6CE80E88093A50660E0FA
:102380008091A324F9D58091372485FFDBCE8091FD
:102390004324909144240196809300249093012437
:1023A000D1CE80913B2490913C2401968093F823D8
:1023B0009093F923B8CE8091392490913A240196D4
:1023C0008093F6239093F723A5CE80916C24898384
:1023D00080916D248A8380916E248B83F0CE9091BE
:1023E00069249C8390916A249D8390916B249E83A1
:1023F000813009F0E4CEE9CFEF92FF920F931F9363
:10240000CF93DF9300D000D0CDB7DEB7FC010081C1
:102410001181F0908E23E0908D2380E400FF31C184
:10242000809365068091372480FDA2C180E401FF7E
:1024300025C1809385068091372481FD8FC180E47A
:1024400002FF19C18093A5068091372482FD7CC1CB
:1024500080E803FFF2C08093650660E08091A124CC
:102460008BD58091372483FD65C180E804FFEEC0E1
:102470008093850660E08091A2247ED580913724E8
:1024800084FD4EC180E805FFEAC08093A50660E0A8
:102490008091A32471D58091372485FD37C180E4D4
:1024A00006FFE6C0809326068091372486FD24C16E
:1024B00080E207FF8EC0809326068091372487FD37
:1024C00011C110FF8AC081E080938E238091372450
:1024D0009091382490FF04C18091492490914A241E
:1024E0000196809306249093072421E011FD7AC081
:1024F00010928D2380E0F21609F489C01C821D829F
:102500001E8219821A821B82213009F48CC081300C
:1025100049F480916C24898380916D248A83809111
:102520006E248B8383E88093A200F090A30B10921B
:10253000A30BBE016F5F7F4FCE0104960E94CF1A9E
:10254000F092A30B87E88093A20081E012FFA5C060
:102550008093A506809137249091382492FDB4C0D1
:1025600081E013FF97C08093850680913724909176
:10257000382493FD9FC081E014FF89C080936506D5
:10258000809137249091382494FD8AC081E015FF12
:102590007BC080934506809137249091382495FF25
:1025A00009C0809153249091542401968093102463
:1025B0009093112400932B2410932C2481E02696D1
:1025C000CDBFDEBFDF91CF911F910F91FF90EF90B4
:1025D00008958093250610FD76CF10928E2320E07B
:1025E00011FF86CF81E080938D23809137249091D5
:1025F000382491FF73C080914B2490914C24019614
:10260000809308249093092481E0F21277CFE81692
:1026100009F49BCF1C821D821E8219821A821B82A2
:10262000213009F074CF909169249C8390916A24A1
:102630009D8390916B249E836ACF8093660661E0B0
:102640008091A12499D480E804FD12CF809386065E
:1026500061E08091A22490D480E805FD16CF80939C
:10266000A60661E08091A32487D480E406FD1ACFFA
:10267000809325061DCF8093A606EACE809386061A
:10268000DECE80936606D2CE8093460693CF8093AB
:1026900066067CCF809386066ECF8093A60660CFB9
:1026A0008091512490915224019680930E2490930E
:1026B0000F246CCF80914F249091502401968093E9
:1026C0000C2490930D2457CF80914D2490914E244B
:1026D000019680930A2490930B2442CF81E00BCF84
:1026E00021E07ECF809147249091482401968093E9
:1026F000042490930524E5CE8091452490914624AE
:1027000001968093022490930324D2CE8091432497
:102710009091442401968093002490930124BFCE8D
:10272000809141249091422401968093FE239093BE
:10273000FF23A8CE80913F2490914024019680935E
:10274000FC239093FD2391CE80913D2490913E24D3
:1027500001968093FA239093FB237ACE80913B24B9
:1027600090913C2401968093F8239093F92367CEAF
:102770008091392490913A2401968093F623909386
:10278000F72354CEFF920F931F93CF93DF9300D084
:1027900000D0CDB7DEB7FC010081118100FF07C07A
:1027A0008091680686FF39C180E48093670601FF47
:1027B00007C08091880686FF1FC180E4809387064A
:1027C00002FF07C08091A80686FF05C180E48093C0
:1027D000A70603FF0FC08091680687FDB8C180E897
:1027E0008093650660E08091A124C6D38091372450
:1027F00083FD7AC104FF0FC08091880687FDAFC1B9
:1028000080E88093850660E08091A224B5D3809112
:10281000372484FD73C105FF0FC08091A80687FD92
:102820008EC180E88093A50660E08091A324A4D3A4
:102830008091372485FD6CC106FF07C08091280672
:1028400086FD33C180E48093270607FF07C080918F
:10285000280685FD19C180E28093270610FF07C076
:1028600080918E23882309F4A3C010928E2311FF38
:1028700007C080918D23882309F487C010928D238F
:10288000C80188279370892B11F180918D23909135
:102890008E231C821D821E8219821A821B82913015
:1028A00009F440C1813009F411C183E88093A2008A
:1028B000F090A30B1092A30BBE016F5F7F4FCE0170
:1028C00004966DD6F092A30B87E88093A20012FFC6
:1028D00007C08091A80680FF45C081E08093A706CD
:1028E00013FF07C08091880680FFBBC081E0809302
:1028F000870614FF07C08091680680FF9FC081E0B3
:102900008093670615FF16C08091480680FDE8C0D9
:1029100081E080934506809137249091382495FF7B
:1029200009C08091532490915424019680931024DF
:102930009093112480912B2490912C24802791270F
:1029400080932B2490932C240093292410932A24E1
:1029500081E02696CDBFDEBFDF91CF911F910F9111
:10296000FF90089581E08093A5068091372490918F
:10297000382492FFB5CF80914D2490914E2401963A
:1029800080930A2490930B24ABCF81E080938D2316
:10299000809137249091382491FF72CF80914B24FD
:1029A00090914C240196809308249093092468CF39
:1029B00081E080938E23809137249091382490FF7A
:1029C00056CF8091492490914A2401968093062401
:1029D000909307244CCF80E48093A5068091372400
:1029E00082FFF7CE80913D2490913E240196809302
:1029F000FA239093FB23EDCE80E4809385068091AB
:102A0000372481FFDDCE80913B2490913C240196B8
:102A10008093F8239093F923D3CE80E480936506C6
:102A20008091372480FFC3CE8091392490913A243D
:102A300001968093F6239093F723B9CE81E080939B
:102A40006506809137249091382494FF5BCF809164
:102A5000512490915224019680930E2490930F2438
:102A600051CF81E08093850680913724909138245E
:102A700093FF3FCF80914F249091502401968093F3
:102A80000C2490930D2435CF80E28093260680910C
:102A9000372487FFE3CE8091472490914824019604
:102AA0008093042490930524D9CE80E48093260655
:102AB0008091372486FFC9CE809145249091462489
:102AC00001968093022490930324BFCE80916C24BE
:102AD000898380916D248A8380916E248B83E5CED7
:102AE00081E08093470626CF80913F249091402437
:102AF00001968093FC239093FD237CCE809141240A
:102B00009091422401968093FE239093FF2383CEDD
:102B100080914324909144240196809300249093C3
:102B200001248ACE909169249C8390916A249D838C
:102B300090916B249E83813009F0B7CEC7CF80E897
:102B40008093A70662E08091A32416D275CE80E818
:102B50008093670662E08091A1240ED24BCE80E87C
:102B60008093870662E08091A22406D254CE1F9300
:102B7000CF93DF9300D000D0CDB7DEB71C821D828B
:102B80001E8219821A821B82813021F1613049F440
:102B900080916C24898380916D248A8380916E2436
:102BA0008B8383E88093A2001091A30B1092A30B58
:102BB000BE016F5F7F4FCE010496F1D41093A30B3B
:102BC00087E88093A2002696CDBFDEBFDF91CF912C
:102BD0001F910895809169248C8380916A248D834C
:102BE00080916B248E83D2CF8F929F92AF92BF92AF
:102BF000CF92DF92EF92FF920F93CF93DF93EC018E
:102C000068307105E0F16034710508F478C060380F
:102C1000710508F454C06F3F710509F008F48FC0C6
:102C2000693582E07807F8F46B01E12CF12C60E063
:102C300072E18AE790E0A70196010E94092B490101
:102C40005A0160E074E284EF90E0A70196010E94CF
:102C5000092BBA01A901EE24E39401E0940162E09A
:102C6000CE010E944D1FDF91CF910F91FF90EF9009
:102C7000DF90CF90BF90AF909F908F9008956B01A1
:102C8000E12CF12C64E274EF80E090E0A701960162
:102C90000E94092B49015A0168E478EE81E090E036
:102CA000A70196010E94092BBA01A901EE24E39421
:102CB00001E0940166E0CE010E944D1FD4CF6B016C
:102CC000E12CF12C60E874E88EE190E0A701960118
:102CD0000E94092B49015A0160E079E08DE390E000
:102CE000A70196010E94092BBA01A901EE24E394E1
:102CF00001E0940164E0CE010E944D1FB4CF6B014E
:102D0000E12CF12C60E970ED83E090E0A7019601E1
:102D10000E94092B49015A0160E271EA87E090E0C4
:102D2000A70196010E94092BBA01A901EE24E394A0
:102D300001E0940165E0CE010E944D1F94CF6B012C
:102D4000E12CF12C60E079E08DE390E0A7019601A1
:102D50000E94092B49015A0160E072E18AE790E084
:102D6000A70196010E94092BBA01A901EE24E39460
:102D700001E0940163E0CE010E944D1F74CF8F9259
:102D80009F92AF92BF92CF92DF92EF92FF920F93FA
:102D9000CF93FC01C081C0FF05C080911824882317
:102DA00009F45CC0C1FF04C080911924882371F02C
:102DB000C093742481E0CF910F91FF90EF90DF904A
:102DC000CF90BF90AF909F908F90089581E08093B7
:102DD00086068AEA8A95F1F700C0C0908624D090D2
:102DE0008724E8E0CE16D10408F44AC0F0E4CF16F8
:102DF000D10408F464C080E8C816D10408F47EC089
:102E0000EFEFCE16D10409F008F497C0F9E5CF161C
:102E1000F2E0DF06F8F4E12CF12C60E072E18AE7E1
:102E200090E0A70196010E94092B49015A0160E038
:102E300074E284EF90E0A70196010E94092BBA0189
:102E4000A901EE24E39401E0940162E080E09AE0BD
:102E50000E944D1F81E080931924AACF81E08093C6
:102E6000A606FAEAFA95F1F700C060918324709102
:102E7000842480E09BE0B8DE81E08093182492CF28
:102E8000E12CF12C64E274EF80E090E0A701960160
:102E90000E94092B49015A0168E478EE81E090E034
:102EA000A70196010E94092BBA01A901EE24E3941F
:102EB00001E0940166E080E09AE0EFD7CBCFE12C0F
:102EC000F12C60E970ED83E090E0A70196010E948B
:102ED000092B49015A0160E271EA87E090E0A701FD
:102EE00096010E94092BBA01A901EE24E39401E0A6
:102EF000940165E080E09AE0D0D7ACCFE12CF12CD2
:102F000060E874E88EE190E0A70196010E94092B29
:102F100049015A0160E079E08DE390E0A701960154
:102F20000E94092BBA01A901EE24E39401E0940167
:102F300064E080E09AE0B1D78DCFE12CF12C60E025
:102F400079E08DE390E0A70196010E94092B4901E9
:102F50005A0160E072E18AE790E0A70196010E94C1
:102F6000092BBA01A901EE24E39401E0940163E086
:102F700080E09AE092D76ECF982F9F7031F090E06A
:102F8000FC013197E730F10508F00895E250FF4F5A
:102F90000C94252B662309F44DC0613009F07CC0E8
:102FA000609366060895662309F440C0613009F015
:102FB0006CC0609386060895662309F43FC06130B3
:102FC00009F040C06093A6060895662359F1613068
:102FD00009F046C080E28093A60608956623F1F0CA
:102FE0006130B9F580E2809386060895662391F0FA
:102FF000613009F043C080E280936606089566233D
:1030000029F06130A1F560934606089581E0809330
:103010004506089580E280936506089580E28093D6
:103020008506089580E28093A506089581E0809347
:103030008506089581E080936506089581E0809378
:10304000A5060895623009F0A0CF81E08093A7061D
:103050000895623009F099CF80E280938706089541
:10306000623009F092CF80E28093A7060895623023
:1030700009F08BCF81E0809347060895623009F014
:1030800084CF80E2809367060895623009F07DCF97
:1030900081E0809387060895623009F076CF81E061
:1030A0008093670608950F9320E048E164E080E68E
:1030B00096E090D620E048E165E080E696E08AD68A
:1030C00020E048E164E080E896E084D620E048E132
:1030D00065E080E896E07ED620E048E164E080EAA2
:1030E00096E078D620E048E165E080EA96E072D686
:1030F00000E020E140E061E080E696E098D620E143
:1031000040E061E080E896E092D620E140E061E0B6
:1031100080EA96E08CD621E040E060E080E496E032
:103120006ED621E040E060E080E696E068D621E0DF
:1031300040E060E080E896E062D621E040E060E0B8
:1031400080EA96E05CD621E040E066E080E296E02E
:1031500056D621E040E065E080E296E050D620E0DF
:1031600040E065E080E496E04AD621E040E066E099
:1031700080E696E044D621E040E067E080E696E015
:103180003ED621E040E066E080E896E038D621E0D7
:1031900040E067E080E896E032D621E040E066E07B
:1031A00080EA96E02CD621E040E067E080EA96E0F5
:1031B00026D681E080934606809366068093860635
:1031C0008093A60680E48093250690E290932506DE
:1031D000909346068093660680E880936606809109
:1031E000A124982F9F7061F580E48093860680E883
:1031F000809386068091A224982F9F70B9F480E472
:103200008093A60680E88093A6068091A324982F39
:103210009F7011F40F91089590E0FC013197E73011
:10322000F105C0F7EB5FFE4F0C94252B90E0FC01FD
:103230003197E730F10518F7E45FFE4F0C94252B2A
:1032400090E0FC013197E730F10570F6ED5EFE4F3E
:103250000C94252B81E080936606DCCF81E080937F
:103260008606D8CF81E08093A606D4CF80E28093F3
:10327000A606D0CF80E280938606CCCF80E28093F2
:103280006606C8CF81E080934606C4CF81E0809374
:103290006606B5CF81E080938606B1CF81E080934A
:1032A000A606ADCF80E28093A606A9CF80E28093E8
:1032B0008606A5CF80E280936606A1CF81E0809349
:1032C00046069DCF81E0809366068ECF81E0809395
:1032D00086068ACF81E08093A60686CF80E280931F
:1032E000A60682CF80E2809386067ECF80E280931E
:1032F00066067ACF81E08093460676CFC09123247C
:103300009C2F9E7F909323248091680682958170E4
:10331000892B809323248091680684FF05C060E098
:1033200080919B2429DE04C061E080919B2424DEEF
:103330008091732480FF08C0809123248C1721F092
:1033400061E080E20E94D7241895C09123248C2F3D
:103350008D7F809323249091880694FF02C092E091
:1033600001C090E0892B809323248091880684FFFC
:1033700005C060E080919C24FFDD04C061E0809185
:103380009C24FADD8091732480FF08C0809123245F
:103390008C1721F061E080E20E94D7241895C0913B
:1033A00023248C2F8B7F809323249091A80694FF55
:1033B00002C094E001C090E0892B80932324809187
:1033C000A80684FF05C060E080919D24D5DD04C07F
:1033D00061E080919D24D0DD8091732480FF08C03E
:1033E000809123248C1721F061E080E20E94D72491
:1033F0001895809114248823D9F08091A7248823DC
:10340000B9F08091AF249091B02401978093260B5E
:103410009093270B8091B7249091B8248093280B28
:103420009093290B8091AB248093000B1092A724DA
:1034300080911824882359F08091732483FF07C05A
:1034400081E08093822461E08CE50E94D724189566
:1034500080911824882371F080918C23882351F067
:1034600010928C2381E08093A60680E09BE029D512
:10347000109218241895809115248823D9F08091F2
:10348000A8248823B9F08091B1249091B2240197A7
:103490008093260A9093270A8091B9249091BA24A8
:1034A0008093280A9093290A8091AC248093000A83
:1034B0001092A82480911924882359F080917324B4
:1034C00084FF07C081E08093852461E08EE50E943F
:1034D000D724189580911924882371F080918B232B
:1034E000882351F010928B2381E08093860680E040
:1034F0009AE0E7D410921924189580911624882315
:10350000D9F08091A9248823B9F08091B3249091B7
:10351000B424019780932609909327098091BB24B6
:103520009091BC2480932809909329098091AD241F
:10353000809300091092A92418958091172488235C
:10354000D9F08091AA248823B9F08091B524909174
:10355000B624019780932608909327088091BD2474
:103560009091BE2480932808909329088091AE24DE
:10357000809300081092AA2418950E94410180911E
:10358000A20087688093A2007894FFCFE0E4F6E081
:1035900080818062808380E2809346060895FC01EA
:1035A000DB0180818093BF2481818093C02482814C
:1035B0008093C1248C918093C22411968C91119791
:1035C0008093C32412968C918093C42496C0009358
:1035D00045060000000000000000000000000000A0
:1035E00000000093460600000000000000000000FC
:1035F00000000000000000000000000000000000CB
:1036000000000000000000000000000000000000BA
:10361000000008950093450600000000000000002F
:10362000000000000000000000000000000000009A
:10363000000000000000000000000000000000008A
:10364000000000000093460600000000000000009B
:10365000000000000000000000000000000000006A
:1036600000000000089500934506000000000000DF
:10367000000000000000000000000093460600006B
:10368000000000000000000000000000000000003A
:10369000000000000000000000000000000000002A
:1036A000000000000000000008950093450600009F
:1036B000000000000000000000000000000000000A
:1036C00000000000000000000000000000000000FA
:1036D000000000000000000000000093460600000B
:1036E00000000000000000000000000000000000DA
:1036F000000000000000000008950F930F9200E208
:10370000EFEBF4E20080019007FE61DF07FC82DF4F
:1037100006FE5DDF06FC7EDF05FE59DF05FC7ADF75
:1037200004FE55DF04FC76DF03FE51DF03FC72DF8D
:1037300002FE4DDF02FC6EDF01FE49DF01FC6ADFA5
:1037400000FE91DF00FCB1DF019007FE40DF07FCC7
:1037500061DF06FE3CDF06FC5DDF05FE38DF05FCB1
:1037600059DF04FE34DF04FC55DF03FE30DF03FCC9
:1037700051DF02FE2CDF02FC4DDF01FE28DF01FCE1
:1037800049DF00FE70DF00FC90DF019007FE1FDFC5
:1037900007FC40DF06FE1BDF06FC3CDF05FE17DFF3
:1037A00005FC38DF04FE13DF04FC34DF03FE0FDF0B
:1037B00003FC30DF02FE0BDF02FC2CDF01FE07DF23
:1037C00001FC28DF00FE4FDF00FC6FDF019007FEE9
:1037D000FEDE07FC1FDF06FEFADE06FC1BDF05FE31
:1037E000F6DE05FC17DF04FEF2DE04FC13DF03FE49
:1037F000EEDE03FC0FDF02FEEADE02FC0BDF01FE61
:10380000E6DE01FC07DF00FE2EDF00FC4EDF01904C
:1038100007FEDDDE07FCFEDE06FED9DE06FCFADE74
:1038200005FED5DE05FCF6DE04FED1DE04FCF2DE8C
:1038300003FECDDE03FCEEDE02FEC9DE02FCEADEA4
:1038400001FEC5DE01FCE6DE00FE0DDF00FC2DDF23
:10385000019007FEBCDE07FCDDDE06FEB8DE06FCDE
:10386000D9DE05FEB4DE05FCD5DE04FEB0DE04FCC8
:10387000D1DE03FEACDE03FCCDDE02FEA8DE02FCE0
:10388000C9DE01FEA4DE01FCC5DE00FEECDE00FCAC
:103890000CDF0F900F9108955058BB27AA270ED028
:1038A00048C139D130F03ED120F031F49F3F11F4BE
:1038B0001EF42EC10EF4E095E7FB24C1E92F4AD196
:1038C00080F3BA17620773078407950718F071F43D
:1038D0009EF562C10EF4E0950B2EBA2FA02D0B01C0
:1038E000B90190010C01CA01A0011124FF27591B45
:1038F00099F0593F50F4503E68F11A16F040A22F4B
:10390000232F342F4427585FF3CF469537952795BB
:10391000A795F0405395C9F77EF41F16BA0B620BBA
:10392000730B840BBAF09150A1F0FF0FBB1F661F01
:10393000771F881FC2F70EC0BA0F621F731F841F44
:1039400048F4879577956795B795F7959E3F08F06A
:10395000B3CF9395880F08F09927EE0F9795879529
:1039600008950CD0E6C0DED040F0D5D030F021F480
:103970005F3F19F0C7C0511110C1CAC0EBD098F316
:103980009923C9F35523B1F3951B550BBB27AA27E0
:1039900062177307840738F09F5F5F4F220F331F52
:1039A000441FAA1FA9F333D00E2E3AF0E0E830D01E
:1039B00091505040E695001CCAF729D0FE2F27D021
:1039C000660F771F881FBB1F261737074807AB07EF
:1039D000B0E809F0BB0B802DBF01FF2793585F4F64
:1039E0002AF09E3F510568F08DC0D7C05F3FECF3D1
:1039F000983EDCF3869577956795B795F7959F5F29
:103A0000C9F7880F911D9695879597F90895E1E07C
:103A1000660F771F881FBB1F621773078407BA07DB
:103A200020F0621B730B840BBA0BEE1F88F7E09536
:103A3000089598D088F09F5790F0B92F9927B751E3
:103A4000A0F0D1F0660F771F881F991F1AF0BA9562
:103A5000C9F712C0B13081F09FD0B1E008959CC089
:103A6000672F782F8827B85F39F0B93FCCF3869558
:103A700077956795B395D9F73EF4909580957095B5
:103A800061957F4F8F4F9F4F0895E89409C097FB32
:103A90003EF490958095709561957F4F8F4F9F4F25
:103AA0009923A9F0F92F96E9BB279395F695879569
:103AB00077956795B795F111F8CFFAF4BB0F11F42C
:103AC00060FF1BC06F5F7F4F8F4F9F4F16C08823D3
:103AD00011F096E911C0772321F09EE8872F762F09
:103AE00005C0662371F096E8862F70E060E02AF04A
:103AF0009A95660F771F881FDAF7880F9695879536
:103B000097F9089597F99F6780E870E060E008955D
:103B10009FEF80EC089500240A94161617061806E5
:103B20000906089500240A941216130614060506C1
:103B30000895092E0394000C11F4882352F0BB0F52
:103B400040F4BF2B11F460FF04C06F5F7F4F8F4FB5
:103B50009F4F089557FD9058440F551F59F05F3FF0
:103B600071F04795880F97FB991F61F09F3F79F09F
:103B700087950895121613061406551FF2CF469521
:103B8000F1DF08C0161617061806991FF1CF8695A3
:103B90007105610508940895E894BB276627772787
:103BA000CB0197F908950BD0C4CFB5DF28F0BADF69
:103BB00018F0952309F0A6CFABCF1124EECFCADFC2
:103BC000A0F3959FD1F3950F50E0551F629FF00130
:103BD000729FBB27F00DB11D639FAA27F00DB11D89
:103BE000AA1F649F6627B00DA11D661F829F222712
:103BF000B00DA11D621F739FB00DA11D621F839F99
:103C0000A00D611D221F749F3327A00D611D231F6E
:103C1000849F600D211D822F762F6A2F11249F57BC
:103C200050408AF0E1F088234AF0EE0FFF1FBB1FDF
:103C3000661F771F881F91505040A9F79E3F51057E
:103C400070F060CFAACF5F3FECF3983EDCF386952F
:103C500077956795B795F795E7959F5FC1F7FE2B29
:103C6000880F911D9695879597F90895222309F459
:103C70005BC030E23093520038E030935000309116
:103C8000510033FFFCCF611538E4730738EE83072A
:103C900031E0930709F482C0611534E2730734EF11
:103CA0008307910509F47CC0611532E173073AE797
:103CB0008307910509F44BC0611539E073073DE3B3
:103CC0008307910509F46EC0603834E873073EE15C
:103CD0008307910509F460C0603432E473073FE064
:103CE0008307910509F462C0603231EA730737E057
:103CF0008307910509F458C0603930ED730733E04C
:103D00008307910509F454C0683438EE730731E035
:103D10008307910509F44EC06432744F8105910503
:103D200009F04AC084E414C032E2309352003AE011
:103D3000309350003091510031FFFCCF3091510051
:103D400033FDA1CF3091510033FFF8CF9CCF8CE0F1
:103D500098ED94BF222399F023E02093400094BF74
:103D600080934100442329F088ED84BF81E0809353
:103D7000420088ED84BF81E080938000089521E0B7
:103D80002093400094BF8093410094BF82E08093D1
:103D9000560020936000E6CF8CE1DACF80E0D8CFE8
:103DA00084E0D6CF84E1D4CF8CE2D2CF84E2D0CFEE
:103DB00084E3CECF8CE3CCCF80E0089588ED84BF40
:103DC00081E080938000089588ED84BF83E0809334
:103DD0008000FFCFFC01308181E090E0062E01C021
:103DE000880F0A94EAF78095832380837096E60F04
:103DF000F11D8081422B807C482B40830895FC017B
:103E0000308181E090E0062E01C0880F0A94EAF725
:103E1000382B30837096E60FF11D8081807C842BD7
:103E20008083211103C080818760808308950F9370
:103E3000FC013185842F90E0880F991FA3E0B0E04A
:103E4000082E01C0AA0F0A94EAF7A095A323082E12
:103E500001C0660F0A94EAF7A62BA18741110FC093
:103E60000023A9F02287248581E090E0042E01C080
:103E7000880F0A94EAF7282B24870F910895413080
:103E800091F7011108C08385822B8387ECCF82854F
:103E9000822B8287E8CF2387E6CFEF920F93FC0136
:103EA00010828CE081874150510946A357A320A777
:103EB00031A70683E78283E1818360830F91EF90CE
:103EC0000895FC0110822CE0218708954F925F92A3
:103ED0006F927F928F929F92AF92BF92EF92FF92DA
:103EE0000F931F932B013C0149015A0120E030E060
:103EF000A901C501B4010E94CD2A882309F43EC05E
:103F0000C301B201C2DDA50194012BDD20E030E048
:103F100040E05FE3C2DC8DDD6115710521E08207C1
:103F20009105A0F421E0F8012083F70160837183FB
:103F300081E01F910F91FF90EF90BF90AF909F9005
:103F40008F907F906F905F904F9008959695879592
:103F50007795679561157105F1E08F07910580F000
:103F6000969587957795679561157105F1E08F07AF
:103F7000910550F423E0F8012083D7CF80E0D9CF1A
:103F800022E0F8012083D1CF9695879577956795A4
:103F900061157105F1E08F07910588F0A3E0969512
:103FA000879577956795AA95D1F761157105F1E029
:103FB0008F07910540F425E0F8012083B6CF24E077
:103FC000F8012083B2CF969587957795679596955A
:103FD00087957795679561157105F1E08F079105D4
:103FE00020F426E0F8012083A0CF96958795779559
:103FF0006795969587957795679561157105F1E0B9
:104000008F07910508F0BACF27E0F80120838DCF04
:10401000FC0110828CE081874150510946A357A3CF
:104020002683608308952091CF0127FDFCCF8093E4
:10403000C0019093C1011092C20186E08093CA0131
:1040400088ED84BF81E08093CB018091C401089505
:104050002091CF0127FDFCCF2091CF0121FF08C087
:1040600026E32093CA0128ED24BF21E02093CB0151
:1040700023E32093CA018093C0019093C101109261
:10408000C2016093C40185E38093CA0188ED84BFB7
:1040900081E08093CB010895E1E7F0E090819D7F7E
:1040A000908391E090930002E1E0F2E020E620832B
:1040B000208120838093020285E080930402909304
:1040C0002002E2E2F2E01082808180830895880F6E
:1040D000880F880F8093210280912002806880934E
:1040E00020028091230280FFFCCF81E08093230295
:1040F00080912402909125029F702091332330916A
:104100003423821B930B0895FF920F931F93CF9339
:10411000DF938C01C7E0D0E0F12C08C0F1100BC098
:10412000CE0196DF2196C032D10571F0F801619180
:104130008F016111F3CF60E0CE018ADFFF24F39499
:104140002196C032D10591F7DF91CF911F910F9148
:10415000FF900895CF93962F803208F47FC0282FC8
:1041600030E020523109F901E852FD4D5081220F13
:10417000331FF901EE5DFD4DC081F901E459FE4D9B
:104180002081318120939523309396239093C824E6
:10419000252F2F702C9FC02D1124EAE0EC0FE09307
:1041A000C9248093CA242FEF2093CB2450615093CD
:1041B000CC2441116BC08091912390919223A091C6
:1041C0009323B09194238093CD249093CE24A093F5
:1041D000CF24B093D02420918F233091902320932B
:1041E000D1243093D2248E2F90E08E3F9105A4F5F8
:1041F000209195233091962340E0842F90E0F9019F
:10420000E80FF91F5081FC01ED52FB4D50834F5FC9
:104210004C13F3CF2091C9242E5F30E02150310997
:10422000121613060CF09EC080E090E040E050E0D3
:10423000FC01E853FB4D8081580F4F5F842F90E0C5
:1042400082179307ACF3F901E853FB4D508380913B
:104250003523813009F46BC0CF9108958D30E0F79C
:10426000282F30E0F901E458FC4D5081220F331F14
:10427000F901EE59FC4DC081F901E85BFC4D20814C
:104280003181209395233093962380CF20914C0841
:104290004091A9235091AA236091AB237091AC2344
:1042A00020FF21C04F5F5F4F6F4F7F4F4093CD2462
:1042B0005093CE246093CF247093D0242091600833
:1042C000309161082093D1243093D224883009F0B2
:1042D0008ACF933009F087CF1092D1241092D22444
:1042E000E091C92480CF4093CD245093CE24609395
:1042F000CF247093D02420916008309161082093DE
:10430000D1243093D224F0919A23F03DF9F62F3046
:104310003105E0F64F5F5F4F6F4F7F4F4093CD24E5
:104320005093CE246093CF247093D024CFCF83E8D2
:104330008093A200C091A30B9091A30B9C7F9093BC
:10434000A30B6091C9246E5F88EC94E22FD7909103
:10435000A30B8C2F8370892B8093A30B87E880930A
:10436000A2007ACF50E06FCFCF93E091CB3D2E2FBC
:1043700030E024303105BCF090E020E030E0F9017D
:10438000E153F24C4081F901EB52F24C40839F5FC4
:10439000292F30E0E091CB3D4E2F50E043505109A2
:1043A0002417350764F38093CA3DEA5FE093CB3D61
:1043B0008091CE3D80618093CE3D80914C0880FFFE
:1043C00040C08091A9239091AA23A091AB23B091E2
:1043D000AC230196A11DB11D8093CF3D9093D03D9C
:1043E000A093D13DB093D23D809160089091610837
:1043F0008093D33D9093D43DF0E0E553F24C10828E
:104400006091CB3D40E0262F30E080E090E0F90164
:10441000E553F24CDC01A653B24C20818C91280F5D
:1044200020834F5F6091CB3D262F30E0842F90E0BA
:104430002817390764F780913523813079F1CF91BE
:1044400008958091A9239091AA23A091AB23B091C4
:10445000AC238093CF3D9093D03DA093D13DB093BA
:10446000D23D20916008309161082093D33D309374
:10447000D43D40919A23403D09F0BECF2F30310505
:1044800008F0BACF0196A11DB11D8093CF3D909346
:10449000D03DA093D13DB093D23DAECF83E8809381
:1044A000A200C091A30B9091A30B9C7F9093A30BB0
:1044B0006E5F8AEC9DE37AD69091A30B8C2F83706C
:1044C000892B8093A30B87E88093A200CF91089556
:1044D0003F924F925F926F927F928F929F92AF9294
:1044E000BF92CF92DF92EF92FF920F931F93CF93E1
:1044F000DF93CDB7DEB73C01962E142FF22E4D88F8
:104500005E885CDC21E041E060E078E488EE91E0E8
:10451000ADDB81E0809348006092A0237092A123DC
:104520009092A2231093A323E092A4238093A52327
:1045300086E08093A623F092A7230093A8231092ED
:10454000A9231092AA231092AB231092AC231092AD
:10455000AD231092AE2382E090E065DD382E83E03B
:1045600090E061DD982E8FEF981609F4B7C0F31430
:1045700009F489C06FED80E090E06ADD6F2D82E084
:1045800090E066DD61E083E090E062DD0E94E001A2
:1045900080E090E048DD8E3E09F480C080E68093A4
:1045A000AF2380E48093B0230E94F7010E94CD02E4
:1045B000A0929E23B0929F23C0929C23D0929D23D1
:1045C00080929B2387E090E02EDD8F3F09F4BDC0F1
:1045D00001EB13E2E6EFEE2EFF24FA94C701805AB6
:1045E00093427C01C701800F911F1DDDF80181936B
:1045F0008F01F3E20A3C1F07A9F789E1E1EBF3E23F
:10460000AAECB3E201900D928A95E1F721E042E134
:104610005AE767E080E498E0FBDCE0919A2381E0D0
:104620008E0F80939A23F0E0E05CFC4D808190E057
:104630000197809368089093690881E08093470808
:1046400020E040E066E080E096E0D9DB80E4809303
:10465000050640E060E081E090E093D4F1D489EA7F
:1046600093E2DF91CF911F910F91FF90EF90DF9038
:10467000CF90BF90AF909F908F907F906F905F9002
:104680004F903F90C1C691E0991274CF0E94E00113
:1046900080E090E0C8DC8E3E09F080CF81E090E0C1
:1046A000C2DC8093AF23A114B10491F0760185019F
:1046B0000C0D1D1DF0E26F2E712CC301B4DCF7014F
:1046C00081937F01FFEF6F1A7F0AE016F106A9F7C9
:1046D00080E88093B0230E94CD026ACF6F2D82E0E4
:1046E00090E0B6DC61E083E090E0B2DC82E090E054
:1046F0009ADC382E83E090E096DC982E8201A7E0C9
:104700006A2E712CE12C0BC0E1100EC0C301A0DC9D
:10471000FFEF6F1A7F0A80E26816710489F0F801D2
:1047200061918F016111F0CF60E0C30191DCEE2453
:10473000E394FFEF6F1A7F0A80E26816710479F73D
:104740006FED80E090E084DC12CF720107E010E0B2
:10475000D12C0AC0D1100DC0C8017ADC0F5F1F4FE9
:104760000032110509F434CFF70161917F01611125
:10477000F1CF60E0C8016CDCDD24D394EFCF0E9460
:10478000680120E480E092EEA4E0B0E00197A10986
:10479000B1090097A105B105C9F720930706F2CF2B
:1047A0008091A9239091AA23A091AB23B091AC232F
:1047B0000196A11DB11D8093A9239093AA23A093D4
:1047C000AB23B093AC238091EE238F5F8093EE23D5
:1047D0008EE090E0809368089093690881E0809370
:1047E0009A230E946E0380914C08806180934C084C
:1047F0000E949B030E94E8044091AF2347FD03C041
:10480000842F8370B1C0842F8370813009F0ACC0D5
:1048100089EA93E2809395239093962383E0809393
:10482000C8248EE08093C92488E08093CA248FEF47
:104830008093CB2484E18093CC2480914C0880FF2A
:1048400018C08091A9239091AA23A091AB23B09185
:10485000AC230196A11DB11D8093CD249093CE244D
:10486000A093CF24B093D0248091600890916108E8
:1048700026C08091A9239091AA23A091AB23B09147
:10488000AC238093CD249093CE24A093CF24B093D7
:10489000D024209160083091610850919A23503DB6
:1048A00071F42F30310558F40196A11DB11D80938C
:1048B000CD249093CE24A093CF24B093D0241092F3
:1048C000D1241092D2248091A9239091AA23A0915F
:1048D000AB23B091AC238093D3249093D424A093A2
:1048E000D524B093D6242091C9242E5F30E02150E6
:1048F00031091216130684F450E060E080E090E085
:10490000FC01E853FB4D8081680F5F5F852F90E0CD
:1049100082179307ACF301C060E0F901E853FB4D47
:10492000608380913523813021F583E88093A20054
:10493000C091A30B9091A30B9C7F9093A30B6091CC
:10494000C9246E5F88EC94E231D49091A30B8C2F34
:104950008370892B8093A30B87E88093A2004091FA
:10496000AF23842F837000C0882339F0813019F47D
:1049700000C092E003C091E001C094E08091A923BF
:10498000892321F080E48093060605C046FF03C01A
:1049900080E4809305060E949A0380914C0884FF6E
:1049A00005C080919923811101C0E9DE189590918D
:1049B000AF239370913009F00895462F63E0CACB7E
:1049C000CF92DF92FF920F931F93CF93DF931F92AB
:1049D0001F92CDB7DEB78D3040F4E82FF0E0DF0155
:1049E000A458BC4D9C91961759F080E00F900F9001
:1049F000DF91CF911F910F91FF90DF90CF9008959D
:104A0000EE0FFF1FEE59FC4D608171816217730735
:104A100061F7883009F47DC08A30C9F18B30F9F034
:104A20008C3019F78A01B7E0CB2ED12CF12C0CC0B9
:104A3000F1100FC0C6010CDBFFEFCF1ADF0A80E2D6
:104A4000C816D10409F47FC0F80161918F0161118A
:104A5000EFCF60E0C601FCDAFF24F394EDCFFA015A
:104A60008081813009F48CC0823009F49AC084308E
:104A700009F4A7C0883011F081E0B8CF6FEF87E06C
:104A800090E0E6DA83E08093992381E0AFCFFA01EA
:104A9000808186FD04C080E48093060680811091A9
:104AA000AF23837F8093AF23FA01808185FF40C0CD
:104AB00015FF5DC083FF10C081E08093E623109254
:104AC000E4238093E5231092E3238091AF23877F33
:104AD0008093AF23FA018081837071F4812F8370FA
:104AE00059F21092E62349835A830E946B0349814D
:104AF0005A81FA0180818370813051F1833009F04D
:104B0000BBCF1370133009F4B7CF0E946D0381E05F
:104B10006DCFFA0180819181A281B3818093A92315
:104B20009093AA23A093AB23B093AC2381E05ECFF4
:104B300015FFC0CF49835A830E946A0349815A8175
:104B4000FA018081B7CF83E08093992381E04ECF33
:104B5000812F8370813009F48FCF49835A830E945B
:104B60006C0349815A81FA0180818370C7CF4983E0
:104B70005A830E94690349815A81FA0180819ACF40
:104B80008AEC93E249835A83BFDA6FED80E090E0CC
:104B90005FDA83E08093992349815A81FA01808109
:104BA00063CF80E090E049835A833DDA49815A819E
:104BB0008E3E09F01ACF83E080939923FA01808119
:104BC00056CF6EEE80E090E049835A8341DA6091DF
:104BD000AF2381E090E03CDA80919E2390919F2367
:104BE00049815A81892BC9F000E010E0E0919C23B3
:104BF000F0919D23E00FF11F6081C80180964983E9
:104C00005A8326DA0F5F1F4F80919E2390919F2336
:104C100049815A810817190748F383E08093992343
:104C2000FA01808127CF0E946E03809168089091DD
:104C30006908E0919A2321E02E0F20939A23E770D0
:104C4000F0E0E05CFC4D3081830F911D809368089B
:104C50009093690820FD26C180913523813069F445
:104C60008093250783E88093A2008091A30B8F7C1B
:104C70008093A30B87E88093A2008091ED2381119C
:104C800003C08091EC230FC081508093ED238823D3
:104C900019F08091EC2307C01092ED231092EC23C1
:104CA0001092E7239BC0882309F498C0A091C825DF
:104CB000B091C9258091CB3D8F3F59F01091CC3DEB
:104CC0005091CD3D0091CE3D2FECE22E2DE3F22E02
:104CD0000AC01091CE3D5091CF3D0091D03D91ED55
:104CE000E92E9DE3F92EFD01319681F090E040E040
:104CF00020E030E0E901C653D24C2881420F9F5F8B
:104D0000292F30E02E173F07A8F301C040E0E653FB
:104D1000F24C9081491360C05F3F09F05DC09091F3
:104D2000CA3D913089F51D31B0F41D3008F01EC127
:104D3000E12FF0E0E458FC4D9081091317C11930C0
:104D400009F00FC180916008909161088093AD23B4
:104D50009093AE2306C1602F812F0E94EF049091A3
:104D6000AF2394FD39C0811103C08091CB3D05C0B4
:104D700041E061E0812FEED92FC090E0883F91059E
:104D80005CF589E0F1DA28C0CD010497202F2F705F
:104D9000622F70E02AD41D3130F49B01A701602FEF
:104DA000812F0EDE06C09B01A701602F812F0E947C
:104DB00008059091AF2394FD0FC0882329F041E0AE
:104DC00062E0812FC7D908C08091CB3D90E0883F39
:104DD000910514F48AE0C8DA1092EC23809135230F
:104DE000813009F05CC08091080786FF46C0809141
:104DF0009723909198230196883B2BE0920729F006
:104E000080939723909398233CC0109297231092FD
:104E100098238091AF23982F93709130E9F486FD09
:104E200003C090E490930606982F907F9093AF2351
:104E300083FF0BC01092E42381E08093E52310925E
:104E4000E323892F877F8093AF231092E6230E946C
:104E50006B039091352301C091E01092EA231092E8
:104E6000EB231092E8231092E9238091A30B8C7F0F
:104E70008093A30B913029F012C0109297231092C7
:104E8000982383E88093A2008091A30B8063809392
:104E9000A30B87E88093A20081E0809326070E94FD
:104EA0009E0302C00E94E80480919923882339F070
:104EB000815080939923811102C00E94E41E809149
:104EC000E5238823E1F080919A2383708230B9F43E
:104ED0008091E3238D3060F4893009F04CC020913B
:104EE0006008309161082093AD233093AE2343C016
:104EF0008F5F8093E3238C3111F41092E52380912E
:104F0000E623882309F180919A238370E9F4809144
:104F1000E423E82FF0E0E852FD4D6081805E0E94BE
:104F2000EF04882331F08091E42341E061E0805E6A
:104F300011D98091E4238F5F8093E42390919B2388
:104F4000891302C01092E6230E949A0380914C08B4
:104F500084FF05C080919923811101C010DC189550
:104F600010C08091AF2384FF03CF36CF9091AF2341
:104F700094FF03CF31CF41E061E0ECD88091E3238F
:104F8000B7CFFF920F931F93CF93DF931F921F9280
:104F9000CDB7DEB789839A83F62E142F20E040E048
:104FA00060E080E297E00E94FF1E20E040E066E0C3
:104FB00080E097E00E94EA1E01E020E440E063E028
:104FC00080E097E00E94171F81E08093260783E02E
:104FD0008093A50B89818093A60B8F2D90E1890288
:104FE000B00111248A818F70862B8093A70B112327
:104FF00029F08091A40B84608093A40B88E08093B7
:10500000A50620E040E063E080EA96E00E94FF1EF3
:1050100020E040E062E080EA96E00E94EA1E809193
:10502000080786FF05C08091A30B8C7F8093A30B9C
:105030000F900F90DF91CF911F910F91FF900895E6
:10504000E0EAFBE084818861848380EE8183838150
:105050008063838308951F920F920FB60F921124DD
:1050600008B60F9218BE09B60F9219BE0BB60F9272
:105070001BBE2F933F934F935F936F937F938F93B9
:105080009F93AF93BF93EF93FF930E94EB04209104
:10509000EA233091EB23C90101968093EA23909390
:1050A000EB23F901E653FA4D20812093A00B8115E3
:1050B00028E1920729F12091E8233091E92328176C
:1050C000390729F48091A30B8C7F8093A30B0E9456
:1050D000EC04FF91EF91BF91AF919F918F917F91E0
:1050E0006F915F914F913F912F910F900BBE0F9059
:1050F00009BE0F9008BE0F900FBE0F901F9018951D
:105100001092EA231092EB2380E090E0D4CF1F921C
:105110000F920FB60F92112408B60F9218BE09B65F
:105120000F9219BE0BB60F921BBE2F933F934F9356
:105130005F936F937F938F939F93AF93BF93EF93FF
:10514000FF930E94ED048091080786FD29C02091FD
:10515000EA233091EB238091E8239091E9232817EB
:10516000390729F08091A30B83608093A30B0E94E1
:10517000EE04FF91EF91BF91AF919F918F917F913D
:105180006F915F914F913F912F910F900BBE0F90B8
:1051900009BE0F9008BE0F900FBE0F901F9018957C
:1051A0008091A30B8C7F8093A30BE1CFBF92CF9212
:1051B000DF92EF92FF920F931F93CF93DF936C01D7
:1051C000B62E8091080786FD05C08091A30B8360F1
:1051D0008093A30B0091E8231091E923C0E0D8E16C
:1051E000C01BD10BEB2CF12CCE15DF0558F1A7011C
:1051F000B601C80186539A4D50D28091EA2390910E
:10520000EB23E00EF11EE092E823F092E923E11493
:1052100028E1F20609F446C008171907A8F5E816B0
:10522000F90690F18FEFE81AF80AE092EA23F0927B
:10523000EB23E11428E1F20639F51092EA231092EB
:10524000EB2322C0AE01B601C80186539A4D25D288
:10525000BC1AEB2CF12CBE016C0D7D1DA7018AEC54
:1052600095E21BD28091EA239091EB23E092E82310
:10527000F092E9230817190788F42FEFE21AF20ACF
:10528000E092EA23F092EB23DF91CF911F910F91EF
:10529000FF90EF90DF90CF90BF900895E816F90649
:1052A00060F7F2CF1092E8231092E923892B61F77F
:1052B00081E090E08093EA239093EB23E5CF1F9267
:1052C0000F920FB60F92112408B60F9218BE09B6AE
:1052D0000F9219BE0BB60F921BBE2F933F934F93A5
:1052E0005F936F937F938F939F93AF93BF93EF934E
:1052F000FF930E94E9049091A00BE091E72381E0E5
:105300008E0F8093E723F0E0E653F24C90838130D8
:1053100019F1843049F190E02091C8253091C925D8
:105320008217930779F10E94EA04FF91EF91BF91F0
:10533000AF919F918F917F916F915F914F913F912D
:105340002F910F900BBE0F9009BE0F9008BE0F90CB
:105350000FBE0F901F9018958091CA3D81508230EA
:10536000D0F11092E723DFCF8091CB3D8F3F01F149
:1053700090E08E3F9105A9F302968093C825909303
:10538000C925D1CF20913523213061F12091CB3D2A
:105390002F3F29F122E030E0821B930B8093C82538
:1053A0009093C9251092E72381E08093EC23BBCF33
:1053B0008091CB3D9091CC3D04968F3F910509F0B3
:1053C00080F68091CC3D9091CD3D04968093C82588
:1053D0009093C925A8CF82E38093ED23A4CF24E046
:1053E00030E0DACF2093250783E88093A2008091F4
:1053F000A30B8F7C8093A30B87E88093A2008091FE
:10540000C8259091C925C2CFCF93DF931F921F92D9
:10541000CDB7DEB723E130E029833A838093F023D0
:105420009093F12383E08093B50889818093B60837
:105430008A818F708093B70820E048E166E080E4BD
:1054400096E00E94EA1E80E18093B408E3EBF8E066
:105450008081806380830F900F90DF91CF910895BA
:105460001F920F920FB60F92112408B60F9218BE1A
:1054700009B60F9219BE0BB60F921BBE2F938F93D6
:105480009F93AF93BF93EF93FF938091B0088A3AB5
:10549000D1F18F3A09F44CC09091EF23923009F486
:1054A0004BC008F472C0943009F452C008F44AC0EA
:1054B000953061F58093F5231092EF238091EE23D0
:1054C0008A3008F44BC082EF99E78093600890938C
:1054D000610881E09AE7809368089093690826E064
:1054E00020933623E091F023F091F1238091F22371
:1054F0009091F323A091F423B091F52380839183BD
:10550000A283B38303C081E08093EF23FF91EF91E7
:10551000BF91AF919F918F912F910F900BBE0F90E4
:1055200009BE0F9008BE0F900FBE0F901F901895E8
:1055300082E08093EF23EACF8093F22383E080938D
:10554000EF23E4CF8093F32384E08093EF23DECF37
:105550008093F42385E08093EF23D8CF1092EE233D
:105560002091362389EF99E7821B91098093600887
:105570009093610881E09AE78093680890936908A6
:10558000222309F4AFCF2150ABCF992319F09130EA
:1055900009F0BCCF1092EF23B9CF03D008F481E01B
:1055A0000895990F0008550FAA0BE0E8FEEF1616B4
:1055B0001706E807F907C0F012161306E407F50707
:1055C00098F0621B730B840B950B39F40A2661F07B
:1055D000232B242B252B21F408950A2609F4A1401E
:1055E000A6958FEF811D811D0895AA1BBB1B51E15C
:1055F00007C0AA1FBB1FA617B70710F0A61BB70B43
:10560000881F991F5A95A9F780959095BC01CD01E7
:105610000895052E97FB16F400940FD057FD05D082
:105620001AD007FC02D046F408C05095409530953A
:1056300021953F4F4F4F5F4F0895909580957095FE
:1056400061957F4F8F4F9F4F0895EE0FFF1F05907D
:10565000F491E02D1994A1E21A2EAA1BBB1BFD01A7
:105660000DC0AA1FBB1FEE1FFF1FA217B307E40741
:10567000F50720F0A21BB30BE40BF50B661F771F99
:10568000881F991F1A9469F7609570958095909579
:105690009B01AC01BD01CF010895FB01DC0102C0FB
:1056A00001900D9241505040D8F70895F894FFCFE3
:1056B0004C054F057510BE0FC213FC113B06420688
:1056C0004906500657065E0665067A068406920667
:1056D000A006AE06BC06CA06D806E606F406020711
:1056E00010071E072C073A07250A830AE10A3F0B19
:1056F0004C079207D8071E089D0BB20C620FC20E12
:10570000120F68089F08D608E308F008BF16F708CC
:10571000660CFF0C250D1C091F0922092509280903
:105720002B092E093109340937093A094C094F0967
:105730006109640967096A096D098C09AB09CA091D
:10574000E909EC09EF09F209F509080A0B0A7A0ED2
:105750009E0E560E110A140A170A0E0EEA0D320E8C
:105760001D0A200A230A28054E055505560557052A
:1057700058053A06410648064F0656065D06640679
:105780007906830691069F06AD06BB06C906D706B5
:10579000E506F30601070F071D072B073907470723
:1057A000480749074A074B079107D7071D08980D77
:1057B000630864086508660867089E08D508E2085B
:1057C000EF08C60DF608D80D100911091B091E09AE
:1057D0002109240927092A092D0930093309360925
:1057E00039094B094E0960096309660969096C09A1
:1057F0008B09AA09C909E809EB09EE09F109F409BD
:10580000070A0A0A0D0A0E0A0F0A100A130A160AD4
:10581000190A1A0A1B0A1C0A1F0A220A2324242412
:105820002524272429242B242D242E242F243024FE
:10583000312432243324372439243B243D243F248B
:10584000412443244524472449244B244D244F24F8
:10585000512453245524572459245B245D245E2469
:105860005F24602461246224632469246C246F24EF
:10587000702471247224732474247524762477246C
:10588000782479247A247B247C247D247E247F241C
:1058900080248124822483248524862488248924C6
:1058A0008A248B248C248E2490249224942495245E
:1058B00096249724982499249A249B249C249D24FC
:1058C0009E249F24A024A124A224A324A424A524AC
:1058D000A6240100010001000100010001000100F7
:1058E00001000100010001000100020001000100AF
:1058F00001000100010001000100010001000100A0
:10590000010001000100010001000100010001008F
:10591000010001000100010001000100010006007A
:10592000030003000100010001000100010001006B
:10593000010001000100010001000100010001005F
:10594000010001000100010001000100010001004F
:10595000010001000100010001000100010001003F
:10596000010001000100010001000100010001002F
:10597000010001000100010001000100010001001F
:105980000100010001000100010102020202010107
:10599000010101018202020202020202020202026B
:1059A00002020202020202020101010101010101DF
:1059B00001010101010101010101010101010101D7
:1059C00001010101010201020101010102020202C1
:1059D00001010101010101010101010101010101B7
:1059E000010101B40001074265686176696F7200C8
:1059F0000F10100F100F1010A023A223A323A42315
:105A0000A523A623A723A823A923AD23AF23B0232F
:105A1000B1230100010001000100010001000100AB
:105A20000100010001000100010019000201010153
:0A5A3000010101010402010101005F
:00000001FF
